{
    "contractName": "Voido",
    "abi": [
        {
            "inputs": [
                {
                    "internalType": "string",
                    "name": "uri",
                    "type": "string"
                }
            ],
            "stateMutability": "nonpayable",
            "type": "constructor"
        },
        {
            "anonymous": false,
            "inputs": [
                {
                    "indexed": true,
                    "internalType": "address",
                    "name": "account",
                    "type": "address"
                },
                {
                    "indexed": true,
                    "internalType": "address",
                    "name": "operator",
                    "type": "address"
                },
                {
                    "indexed": false,
                    "internalType": "bool",
                    "name": "approved",
                    "type": "bool"
                }
            ],
            "name": "ApprovalForAll",
            "type": "event"
        },
        {
            "anonymous": false,
            "inputs": [
                {
                    "indexed": true,
                    "internalType": "address",
                    "name": "previousOwner",
                    "type": "address"
                },
                {
                    "indexed": true,
                    "internalType": "address",
                    "name": "newOwner",
                    "type": "address"
                }
            ],
            "name": "OwnershipTransferred",
            "type": "event"
        },
        {
            "anonymous": false,
            "inputs": [
                {
                    "indexed": false,
                    "internalType": "address",
                    "name": "account",
                    "type": "address"
                }
            ],
            "name": "Paused",
            "type": "event"
        },
        {
            "anonymous": false,
            "inputs": [
                {
                    "indexed": true,
                    "internalType": "bytes32",
                    "name": "role",
                    "type": "bytes32"
                },
                {
                    "indexed": true,
                    "internalType": "bytes32",
                    "name": "previousAdminRole",
                    "type": "bytes32"
                },
                {
                    "indexed": true,
                    "internalType": "bytes32",
                    "name": "newAdminRole",
                    "type": "bytes32"
                }
            ],
            "name": "RoleAdminChanged",
            "type": "event"
        },
        {
            "anonymous": false,
            "inputs": [
                {
                    "indexed": true,
                    "internalType": "bytes32",
                    "name": "role",
                    "type": "bytes32"
                },
                {
                    "indexed": true,
                    "internalType": "address",
                    "name": "account",
                    "type": "address"
                },
                {
                    "indexed": true,
                    "internalType": "address",
                    "name": "sender",
                    "type": "address"
                }
            ],
            "name": "RoleGranted",
            "type": "event"
        },
        {
            "anonymous": false,
            "inputs": [
                {
                    "indexed": true,
                    "internalType": "bytes32",
                    "name": "role",
                    "type": "bytes32"
                },
                {
                    "indexed": true,
                    "internalType": "address",
                    "name": "account",
                    "type": "address"
                },
                {
                    "indexed": true,
                    "internalType": "address",
                    "name": "sender",
                    "type": "address"
                }
            ],
            "name": "RoleRevoked",
            "type": "event"
        },
        {
            "anonymous": false,
            "inputs": [
                {
                    "indexed": true,
                    "internalType": "address",
                    "name": "operator",
                    "type": "address"
                },
                {
                    "indexed": true,
                    "internalType": "address",
                    "name": "from",
                    "type": "address"
                },
                {
                    "indexed": true,
                    "internalType": "address",
                    "name": "to",
                    "type": "address"
                },
                {
                    "indexed": false,
                    "internalType": "uint256[]",
                    "name": "ids",
                    "type": "uint256[]"
                },
                {
                    "indexed": false,
                    "internalType": "uint256[]",
                    "name": "values",
                    "type": "uint256[]"
                }
            ],
            "name": "TransferBatch",
            "type": "event"
        },
        {
            "anonymous": false,
            "inputs": [
                {
                    "indexed": true,
                    "internalType": "address",
                    "name": "operator",
                    "type": "address"
                },
                {
                    "indexed": true,
                    "internalType": "address",
                    "name": "from",
                    "type": "address"
                },
                {
                    "indexed": true,
                    "internalType": "address",
                    "name": "to",
                    "type": "address"
                },
                {
                    "indexed": false,
                    "internalType": "uint256",
                    "name": "id",
                    "type": "uint256"
                },
                {
                    "indexed": false,
                    "internalType": "uint256",
                    "name": "value",
                    "type": "uint256"
                }
            ],
            "name": "TransferSingle",
            "type": "event"
        },
        {
            "anonymous": false,
            "inputs": [
                {
                    "indexed": false,
                    "internalType": "string",
                    "name": "value",
                    "type": "string"
                },
                {
                    "indexed": true,
                    "internalType": "uint256",
                    "name": "id",
                    "type": "uint256"
                }
            ],
            "name": "URI",
            "type": "event"
        },
        {
            "anonymous": false,
            "inputs": [
                {
                    "indexed": false,
                    "internalType": "address",
                    "name": "account",
                    "type": "address"
                }
            ],
            "name": "Unpaused",
            "type": "event"
        },
        {
            "inputs": [],
            "name": "DEFAULT_ADMIN_ROLE",
            "outputs": [
                {
                    "internalType": "bytes32",
                    "name": "",
                    "type": "bytes32"
                }
            ],
            "stateMutability": "view",
            "type": "function"
        },
        {
            "inputs": [],
            "name": "MINTER_ROLE",
            "outputs": [
                {
                    "internalType": "bytes32",
                    "name": "",
                    "type": "bytes32"
                }
            ],
            "stateMutability": "view",
            "type": "function"
        },
        {
            "inputs": [],
            "name": "PAUSER_ROLE",
            "outputs": [
                {
                    "internalType": "bytes32",
                    "name": "",
                    "type": "bytes32"
                }
            ],
            "stateMutability": "view",
            "type": "function"
        },
        {
            "inputs": [
                {
                    "internalType": "address",
                    "name": "account",
                    "type": "address"
                },
                {
                    "internalType": "uint256",
                    "name": "id",
                    "type": "uint256"
                }
            ],
            "name": "balanceOf",
            "outputs": [
                {
                    "internalType": "uint256",
                    "name": "",
                    "type": "uint256"
                }
            ],
            "stateMutability": "view",
            "type": "function"
        },
        {
            "inputs": [
                {
                    "internalType": "address",
                    "name": "account",
                    "type": "address"
                },
                {
                    "internalType": "uint256[]",
                    "name": "ids",
                    "type": "uint256[]"
                }
            ],
            "name": "balanceOfAccountTokens",
            "outputs": [
                {
                    "internalType": "uint256[]",
                    "name": "",
                    "type": "uint256[]"
                }
            ],
            "stateMutability": "view",
            "type": "function"
        },
        {
            "inputs": [
                {
                    "internalType": "address[]",
                    "name": "accounts",
                    "type": "address[]"
                },
                {
                    "internalType": "uint256[]",
                    "name": "ids",
                    "type": "uint256[]"
                }
            ],
            "name": "balanceOfBatch",
            "outputs": [
                {
                    "internalType": "uint256[]",
                    "name": "",
                    "type": "uint256[]"
                }
            ],
            "stateMutability": "view",
            "type": "function"
        },
        {
            "inputs": [
                {
                    "internalType": "address",
                    "name": "account",
                    "type": "address"
                },
                {
                    "internalType": "uint256",
                    "name": "id",
                    "type": "uint256"
                },
                {
                    "internalType": "uint256",
                    "name": "value",
                    "type": "uint256"
                }
            ],
            "name": "burn",
            "outputs": [],
            "stateMutability": "nonpayable",
            "type": "function"
        },
        {
            "inputs": [
                {
                    "internalType": "address",
                    "name": "account",
                    "type": "address"
                },
                {
                    "internalType": "uint256[]",
                    "name": "ids",
                    "type": "uint256[]"
                },
                {
                    "internalType": "uint256[]",
                    "name": "values",
                    "type": "uint256[]"
                }
            ],
            "name": "burnBatch",
            "outputs": [],
            "stateMutability": "nonpayable",
            "type": "function"
        },
        {
            "inputs": [
                {
                    "internalType": "uint256",
                    "name": "id",
                    "type": "uint256"
                },
                {
                    "internalType": "uint256",
                    "name": "amount",
                    "type": "uint256"
                },
                {
                    "internalType": "address",
                    "name": "from",
                    "type": "address"
                },
                {
                    "internalType": "address",
                    "name": "to",
                    "type": "address"
                }
            ],
            "name": "buyItemFromSale",
            "outputs": [],
            "stateMutability": "payable",
            "type": "function"
        },
        {
            "inputs": [
                {
                    "internalType": "uint256",
                    "name": "id",
                    "type": "uint256"
                }
            ],
            "name": "getCountOfIds",
            "outputs": [],
            "stateMutability": "nonpayable",
            "type": "function"
        },
        {
            "inputs": [
                {
                    "internalType": "uint256",
                    "name": "id",
                    "type": "uint256"
                }
            ],
            "name": "getIdInfo",
            "outputs": [
                {
                    "components": [
                        {
                            "internalType": "uint256",
                            "name": "price",
                            "type": "uint256"
                        },
                        {
                            "internalType": "uint256",
                            "name": "count",
                            "type": "uint256"
                        }
                    ],
                    "internalType": "struct Voido.ItemProperty",
                    "name": "ownerTokens",
                    "type": "tuple"
                }
            ],
            "stateMutability": "view",
            "type": "function"
        },
        {
            "inputs": [
                {
                    "internalType": "bytes32",
                    "name": "role",
                    "type": "bytes32"
                }
            ],
            "name": "getRoleAdmin",
            "outputs": [
                {
                    "internalType": "bytes32",
                    "name": "",
                    "type": "bytes32"
                }
            ],
            "stateMutability": "view",
            "type": "function"
        },
        {
            "inputs": [
                {
                    "internalType": "bytes32",
                    "name": "role",
                    "type": "bytes32"
                },
                {
                    "internalType": "uint256",
                    "name": "index",
                    "type": "uint256"
                }
            ],
            "name": "getRoleMember",
            "outputs": [
                {
                    "internalType": "address",
                    "name": "",
                    "type": "address"
                }
            ],
            "stateMutability": "view",
            "type": "function"
        },
        {
            "inputs": [
                {
                    "internalType": "bytes32",
                    "name": "role",
                    "type": "bytes32"
                }
            ],
            "name": "getRoleMemberCount",
            "outputs": [
                {
                    "internalType": "uint256",
                    "name": "",
                    "type": "uint256"
                }
            ],
            "stateMutability": "view",
            "type": "function"
        },
        {
            "inputs": [
                {
                    "internalType": "bytes32",
                    "name": "role",
                    "type": "bytes32"
                },
                {
                    "internalType": "address",
                    "name": "account",
                    "type": "address"
                }
            ],
            "name": "grantRole",
            "outputs": [],
            "stateMutability": "nonpayable",
            "type": "function"
        },
        {
            "inputs": [
                {
                    "internalType": "bytes32",
                    "name": "role",
                    "type": "bytes32"
                },
                {
                    "internalType": "address",
                    "name": "account",
                    "type": "address"
                }
            ],
            "name": "hasRole",
            "outputs": [
                {
                    "internalType": "bool",
                    "name": "",
                    "type": "bool"
                }
            ],
            "stateMutability": "view",
            "type": "function"
        },
        {
            "inputs": [
                {
                    "internalType": "address",
                    "name": "account",
                    "type": "address"
                },
                {
                    "internalType": "address",
                    "name": "operator",
                    "type": "address"
                }
            ],
            "name": "isApprovedForAll",
            "outputs": [
                {
                    "internalType": "bool",
                    "name": "",
                    "type": "bool"
                }
            ],
            "stateMutability": "view",
            "type": "function"
        },
        {
            "inputs": [
                {
                    "internalType": "address",
                    "name": "to",
                    "type": "address"
                },
                {
                    "internalType": "uint256",
                    "name": "id",
                    "type": "uint256"
                },
                {
                    "internalType": "uint256",
                    "name": "amount",
                    "type": "uint256"
                },
                {
                    "internalType": "bytes",
                    "name": "data",
                    "type": "bytes"
                },
                {
                    "internalType": "string",
                    "name": "rank",
                    "type": "string"
                }
            ],
            "name": "mint",
            "outputs": [],
            "stateMutability": "nonpayable",
            "type": "function"
        },
        {
            "inputs": [
                {
                    "internalType": "address",
                    "name": "to",
                    "type": "address"
                },
                {
                    "internalType": "uint256[]",
                    "name": "ids",
                    "type": "uint256[]"
                },
                {
                    "internalType": "uint256[]",
                    "name": "amounts",
                    "type": "uint256[]"
                },
                {
                    "internalType": "bytes",
                    "name": "data",
                    "type": "bytes"
                }
            ],
            "name": "mintBatch",
            "outputs": [],
            "stateMutability": "nonpayable",
            "type": "function"
        },
        {
            "inputs": [],
            "name": "owner",
            "outputs": [
                {
                    "internalType": "address",
                    "name": "",
                    "type": "address"
                }
            ],
            "stateMutability": "view",
            "type": "function"
        },
        {
            "inputs": [],
            "name": "pause",
            "outputs": [],
            "stateMutability": "nonpayable",
            "type": "function"
        },
        {
            "inputs": [],
            "name": "paused",
            "outputs": [
                {
                    "internalType": "bool",
                    "name": "",
                    "type": "bool"
                }
            ],
            "stateMutability": "view",
            "type": "function"
        },
        {
            "inputs": [],
            "name": "renounceOwnership",
            "outputs": [],
            "stateMutability": "nonpayable",
            "type": "function"
        },
        {
            "inputs": [
                {
                    "internalType": "bytes32",
                    "name": "role",
                    "type": "bytes32"
                },
                {
                    "internalType": "address",
                    "name": "account",
                    "type": "address"
                }
            ],
            "name": "renounceRole",
            "outputs": [],
            "stateMutability": "nonpayable",
            "type": "function"
        },
        {
            "inputs": [
                {
                    "internalType": "bytes32",
                    "name": "role",
                    "type": "bytes32"
                },
                {
                    "internalType": "address",
                    "name": "account",
                    "type": "address"
                }
            ],
            "name": "revokeRole",
            "outputs": [],
            "stateMutability": "nonpayable",
            "type": "function"
        },
        {
            "inputs": [
                {
                    "internalType": "address",
                    "name": "from",
                    "type": "address"
                },
                {
                    "internalType": "address",
                    "name": "to",
                    "type": "address"
                },
                {
                    "internalType": "uint256[]",
                    "name": "ids",
                    "type": "uint256[]"
                },
                {
                    "internalType": "uint256[]",
                    "name": "amounts",
                    "type": "uint256[]"
                },
                {
                    "internalType": "bytes",
                    "name": "data",
                    "type": "bytes"
                }
            ],
            "name": "safeBatchTransferFrom",
            "outputs": [],
            "stateMutability": "nonpayable",
            "type": "function"
        },
        {
            "inputs": [
                {
                    "internalType": "address",
                    "name": "from",
                    "type": "address"
                },
                {
                    "internalType": "address",
                    "name": "to",
                    "type": "address"
                },
                {
                    "internalType": "uint256",
                    "name": "id",
                    "type": "uint256"
                },
                {
                    "internalType": "uint256",
                    "name": "amount",
                    "type": "uint256"
                },
                {
                    "internalType": "bytes",
                    "name": "data",
                    "type": "bytes"
                }
            ],
            "name": "safeTransferFrom",
            "outputs": [],
            "stateMutability": "nonpayable",
            "type": "function"
        },
        {
            "inputs": [
                {
                    "internalType": "address",
                    "name": "operator",
                    "type": "address"
                },
                {
                    "internalType": "bool",
                    "name": "approved",
                    "type": "bool"
                }
            ],
            "name": "setApprovalForAll",
            "outputs": [],
            "stateMutability": "nonpayable",
            "type": "function"
        },
        {
            "inputs": [
                {
                    "internalType": "bool",
                    "name": "presaleValue",
                    "type": "bool"
                }
            ],
            "name": "setPresale",
            "outputs": [],
            "stateMutability": "nonpayable",
            "type": "function"
        },
        {
            "inputs": [
                {
                    "internalType": "bytes4",
                    "name": "interfaceId",
                    "type": "bytes4"
                }
            ],
            "name": "supportsInterface",
            "outputs": [
                {
                    "internalType": "bool",
                    "name": "",
                    "type": "bool"
                }
            ],
            "stateMutability": "view",
            "type": "function"
        },
        {
            "inputs": [
                {
                    "internalType": "address",
                    "name": "newOwner",
                    "type": "address"
                }
            ],
            "name": "transferOwnership",
            "outputs": [],
            "stateMutability": "nonpayable",
            "type": "function"
        },
        {
            "inputs": [],
            "name": "unpause",
            "outputs": [],
            "stateMutability": "nonpayable",
            "type": "function"
        },
        {
            "inputs": [
                {
                    "internalType": "uint256",
                    "name": "",
                    "type": "uint256"
                }
            ],
            "name": "uri",
            "outputs": [
                {
                    "internalType": "string",
                    "name": "",
                    "type": "string"
                }
            ],
            "stateMutability": "view",
            "type": "function"
        }
    ],
    "bytecode": "60806040526000600855600b805460ff191660011790553480156200002357600080fd5b506040516200393638038062003936833981016040819052620000469162000497565b80620000528162000242565b506005805460ff191690556000620000696200025b565b60058054610100600160a81b0319166101006001600160a01b03841690810291909117909155604051919250906000907f8be0079c531659141344cd1fd0a4f28419497f9722a3daafe3b4186f6b6457e0908290a350620000d56000620000cf6200025b565b6200025f565b620001047f9f2df0fed2c77648de5860a4cc508cd0818c85b8b8a1ab4ceeef8d981c8956a6620000cf6200025b565b620001337f65d7a28e3265b37a6474929f336521b332c1681b933f6cb9f3376673440d862a620000cf6200025b565b6200014a6007620002a260201b620014b41760201c565b6040518060400160405280670de0b6b3a7640000815260200160148152506009604051620001789062000566565b908152602001604051809103902060008201518160000155602082015181600101559050506040518060400160405280671bc16d674ec800008152602001600a8152506009604051620001cb9062000582565b9081526020016040518091039020600082015181600001556020820151816001015590505060405180604001604052806729a2241af62c00008152602001600581525060096040516200021e9062000573565b908152604051602091819003820190208251815591015160019091015550620005e2565b805162000257906004906020840190620003f1565b5050565b3390565b620002768282620002ab60201b620014bd1760201c565b60008281526001602090815260409091206200029d918390620014cb620002b7821b17901c565b505050565b80546001019055565b620002578282620002d7565b6000620002ce836001600160a01b03841662000361565b90505b92915050565b620002e38282620003b0565b62000257576000828152602081815260408083206001600160a01b03851684529091529020805460ff191660011790556200031d6200025b565b6001600160a01b0316816001600160a01b0316837f2f8788117e7eff1d82e926ec794901d17c78024a50270940304540a733656f0d60405160405180910390a45050565b60006200036f8383620003d9565b620003a757508154600181810184556000848152602080822090930184905584548482528286019093526040902091909155620002d1565b506000620002d1565b6000918252602082815260408084206001600160a01b0393909316845291905290205460ff1690565b60009081526001919091016020526040902054151590565b828054620003ff906200058f565b90600052602060002090601f0160209004810192826200042357600085556200046e565b82601f106200043e57805160ff19168380011785556200046e565b828001600101855582156200046e579182015b828111156200046e57825182559160200191906001019062000451565b506200047c92915062000480565b5090565b5b808211156200047c576000815560010162000481565b60006020808385031215620004aa578182fd5b82516001600160401b0380821115620004c1578384fd5b818501915085601f830112620004d5578384fd5b815181811115620004ea57620004ea620005cc565b604051601f8201601f1916810185018381118282101715620005105762000510620005cc565b604052818152838201850188101562000527578586fd5b8592505b818310156200054a57838301850151818401860152918401916200052b565b818311156200055b57858583830101525b979650505050505050565b604160f81b815260010190565b6253535360e81b815260030190565b605360f81b815260010190565b600281046001821680620005a457607f821691505b60208210811415620005c657634e487b7160e01b600052602260045260246000fd5b50919050565b634e487b7160e01b600052604160045260246000fd5b61334480620005f26000396000f3fe6080604052600436106101ed5760003560e01c80638456cb591161010d578063c54e73e3116100a0578063e63ab1e91161006f578063e63ab1e914610571578063e985e9c514610586578063f242432a146105a6578063f2fde38b146105c6578063f5298aca146105e6576101ed565b8063c54e73e3146104fc578063ca15c8731461051c578063d53913931461053c578063d547741f14610551576101ed565b806391d14854116100dc57806391d1485414610487578063a217fddf146104a7578063a22cb465146104bc578063c1341c4f146104dc576101ed565b80638456cb59146104105780638da5cb5b146104255780638ea27619146104475780639010d07c14610467576101ed565b8063361ad979116101855780635a9ce6c2116101545780635a9ce6c2146103b35780635c975abb146103c65780636b20c454146103db578063715018a6146103fb576101ed565b8063361ad9791461033157806336568abe1461035e5780633f4ba83a1461037e5780634e1273f414610393576101ed565b80631f7fdffa116101c15780631f7fdffa146102af578063248a9ca3146102d15780632eb2c2d6146102f15780632f2ff15d14610311576101ed565b8062fdd58e146101f257806301ffc9a7146102285780630e89341c146102555780631c298fd814610282575b600080fd5b3480156101fe57600080fd5b5061021261020d36600461257c565b610606565b60405161021f919061298b565b60405180910390f35b34801561023457600080fd5b50610248610243366004612789565b610662565b60405161021f9190612980565b34801561026157600080fd5b5061027561027036600461272e565b610675565b60405161021f9190612994565b34801561028e57600080fd5b506102a261029d366004612404565b610709565b60405161021f919061293f565b3480156102bb57600080fd5b506102cf6102ca3660046124bf565b6107e0565b005b3480156102dd57600080fd5b506102126102ec36600461272e565b610828565b3480156102fd57600080fd5b506102cf61030c3660046122fd565b61083d565b34801561031d57600080fd5b506102cf61032c366004612746565b610aa6565b34801561033d57600080fd5b5061035161034c36600461272e565b610acd565b60405161021f91906130c0565b34801561036a57600080fd5b506102cf610379366004612746565b610aff565b34801561038a57600080fd5b506102cf610b21565b34801561039f57600080fd5b506102a26103ae366004612661565b610b73565b6102cf6103c13660046127c1565b610c7d565b3480156103d257600080fd5b50610248610db2565b3480156103e757600080fd5b506102cf6103f636600461244f565b610dbc565b34801561040757600080fd5b506102cf610e11565b34801561041c57600080fd5b506102cf610ea0565b34801561043157600080fd5b5061043a610ef0565b60405161021f9190612888565b34801561045357600080fd5b506102cf61046236600461272e565b610f04565b34801561047357600080fd5b5061043a610482366004612768565b610f07565b34801561049357600080fd5b506102486104a2366004612746565b610f26565b3480156104b357600080fd5b50610212610f4f565b3480156104c857600080fd5b506102cf6104d7366004612553565b610f54565b3480156104e857600080fd5b506102cf6104f73660046125d7565b611022565b34801561050857600080fd5b506102cf610517366004612714565b61113d565b34801561052857600080fd5b5061021261053736600461272e565b611186565b34801561054857600080fd5b5061021261119d565b34801561055d57600080fd5b506102cf61056c366004612746565b6111af565b34801561057d57600080fd5b506102126111b9565b34801561059257600080fd5b506102486105a13660046122cb565b6111dd565b3480156105b257600080fd5b506102cf6105c13660046123a2565b61120b565b3480156105d257600080fd5b506102cf6105e13660046122b1565b611393565b3480156105f257600080fd5b506102cf6106013660046125a5565b61145f565b60006001600160a01b0383166106375760405162461bcd60e51b815260040161062e90612b02565b60405180910390fd5b5060008181526002602090815260408083206001600160a01b03861684529091529020545b92915050565b600061066d826114e0565b90505b919050565b6060600480546106849061318c565b80601f01602080910402602001604051908101604052809291908181526020018280546106b09061318c565b80156106fd5780601f106106d2576101008083540402835291602001916106fd565b820191906000526020600020905b8154815290600101906020018083116106e057829003601f168201915b50505050509050919050565b6060600082516001600160401b0381111561073457634e487b7160e01b600052604160045260246000fd5b60405190808252806020026020018201604052801561075d578160200160208202803683370190505b50905060005b83518110156107d85761079d8585838151811061079057634e487b7160e01b600052603260045260246000fd5b6020026020010151610606565b8282815181106107bd57634e487b7160e01b600052603260045260246000fd5b60209081029190910101526107d1816131c7565b9050610763565b509392505050565b6107fa6000805160206132ef8339815191526104a2611520565b6108165760405162461bcd60e51b815260040161062e90612dc0565b61082284848484611524565b50505050565b60009081526020819052604090206001015490565b815183511461085e5760405162461bcd60e51b815260040161062e90612fe8565b6001600160a01b0384166108845760405162461bcd60e51b815260040161062e90612ce6565b61088c611520565b6001600160a01b0316856001600160a01b031614806108b257506108b2856105a1611520565b6108ce5760405162461bcd60e51b815260040161062e90612d2b565b60006108d8611520565b90506108e88187878787876116a6565b60005b8451811015610a3857600085828151811061091657634e487b7160e01b600052603260045260246000fd5b60200260200101519050600085838151811061094257634e487b7160e01b600052603260045260246000fd5b60209081029190910181015160008481526002835260408082206001600160a01b038e1683529093529190912054909150818110156109935760405162461bcd60e51b815260040161062e90612e1d565b61099d8282613149565b6002600085815260200190815260200160002060008c6001600160a01b03166001600160a01b0316815260200190815260200160002081905550816002600085815260200190815260200160002060008b6001600160a01b03166001600160a01b031681526020019081526020016000206000828254610a1d9190613131565b9250508190555050505080610a31906131c7565b90506108eb565b50846001600160a01b0316866001600160a01b0316826001600160a01b03167f4a39dc06d4c0dbc64b70af90fd698a233a518aa5d07e595d983b8c0526c8f7fb8787604051610a88929190612952565b60405180910390a4610a9e8187878787876116b4565b505050505050565b610ab082826117c2565b6000828152600160205260409020610ac890826114cb565b505050565b610ad561218e565b506000908152600a6020908152604091829020825180840190935280548352600101549082015290565b610b0982826117f2565b6000828152600160205260409020610ac89082611834565b610b4d7f65d7a28e3265b37a6474929f336521b332c1681b933f6cb9f3376673440d862a6104a2611520565b610b695760405162461bcd60e51b815260040161062e90612e9c565b610b71611849565b565b60608151835114610b965760405162461bcd60e51b815260040161062e90612f9f565b600083516001600160401b03811115610bbf57634e487b7160e01b600052604160045260246000fd5b604051908082528060200260200182016040528015610be8578160200160208202803683370190505b50905060005b84518110156107d857610c42858281518110610c1a57634e487b7160e01b600052603260045260246000fd5b602002602001015185838151811061079057634e487b7160e01b600052603260045260246000fd5b828281518110610c6257634e487b7160e01b600052603260045260246000fd5b6020908102919091010152610c76816131c7565b9050610bee565b6000610c87611520565b9050610c91611520565b6001600160a01b0316836001600160a01b03161480610cb75750610cb7836105a1611520565b610cd35760405162461bcd60e51b815260040161062e90612c23565b60008581526006602090815260408083206001600160a01b038716845290915290205484811015610d165760405162461bcd60e51b815260040161062e90612e1d565b610d208582613149565b60008781526006602090815260408083206001600160a01b038981168552925280832093909355851681529081208054879290610d5e908490613131565b92505081905550826001600160a01b0316846001600160a01b0316836001600160a01b03166000805160206132cf8339815191528989604051610da29291906130d7565b60405180910390a4505050505050565b60055460ff165b90565b610dc4611520565b6001600160a01b0316836001600160a01b03161480610dea5750610dea836105a1611520565b610e065760405162461bcd60e51b815260040161062e90612c23565b610ac88383836118b7565b610e19611520565b6001600160a01b0316610e2a610ef0565b6001600160a01b031614610e505760405162461bcd60e51b815260040161062e90612e67565b60055460405160009161010090046001600160a01b0316907f8be0079c531659141344cd1fd0a4f28419497f9722a3daafe3b4186f6b6457e0908390a360058054610100600160a81b0319169055565b610ecc7f65d7a28e3265b37a6474929f336521b332c1681b933f6cb9f3376673440d862a6104a2611520565b610ee85760405162461bcd60e51b815260040161062e90612ef9565b610b71611a78565b60055461010090046001600160a01b031690565b50565b6000828152600160205260408120610f1f9083611ad3565b9392505050565b6000918252602082815260408084206001600160a01b0393909316845291905290205460ff1690565b600081565b816001600160a01b0316610f66611520565b6001600160a01b03161415610f8d5760405162461bcd60e51b815260040161062e90612f56565b8060036000610f9a611520565b6001600160a01b03908116825260208083019390935260409182016000908120918716808252919093529120805460ff191692151592909217909155610fde611520565b6001600160a01b03167f17307eab39ab6107e8899845ad3d59bd9653f200f220920489ca2b5937696c31836040516110169190612980565b60405180910390a35050565b61103c6000805160206132ef8339815191526104a2611520565b6110585760405162461bcd60e51b815260040161062e90612dc0565b6008548411156110685760088490555b61107485858585611adf565b6000848152600a6020526040902060010154156110e6576040805180820182526000868152600a6020818152938220805484529188905283526001015490918201906110c1908690613131565b90526000858152600a6020908152604090912082518155910151600190910155611136565b6040518060400160405280600983604051611101919061286c565b90815260408051602092819003830190205483529181018690526000878152600a825291909120825181559101516001909101555b5050505050565b6111576000805160206132ef8339815191526104a2611520565b6111735760405162461bcd60e51b815260040161062e90612dc0565b600b805460ff1916911515919091179055565b600081815260016020526040812061066d90611baf565b6000805160206132ef83398151915281565b610b098282611bba565b7f65d7a28e3265b37a6474929f336521b332c1681b933f6cb9f3376673440d862a81565b6001600160a01b03918216600090815260036020908152604080832093909416825291909152205460ff1690565b6001600160a01b0384166112315760405162461bcd60e51b815260040161062e90612ce6565b611239611520565b6001600160a01b0316856001600160a01b0316148061125f575061125f856105a1611520565b61127b5760405162461bcd60e51b815260040161062e90612c23565b6000611285611520565b90506112a581878761129688611be2565b61129f88611be2565b876116a6565b60008481526002602090815260408083206001600160a01b038a168452909152902054838110156112e85760405162461bcd60e51b815260040161062e90612e1d565b6112f28482613149565b60008681526002602090815260408083206001600160a01b038c81168552925280832093909355881681529081208054869290611330908490613131565b92505081905550856001600160a01b0316876001600160a01b0316836001600160a01b03166000805160206132cf83398151915288886040516113749291906130d7565b60405180910390a461138a828888888888611c3b565b50505050505050565b61139b611520565b6001600160a01b03166113ac610ef0565b6001600160a01b0316146113d25760405162461bcd60e51b815260040161062e90612e67565b6001600160a01b0381166113f85760405162461bcd60e51b815260040161062e90612b4d565b6005546040516001600160a01b0380841692610100900416907f8be0079c531659141344cd1fd0a4f28419497f9722a3daafe3b4186f6b6457e090600090a3600580546001600160a01b0390921661010002610100600160a81b0319909216919091179055565b611467611520565b6001600160a01b0316836001600160a01b0316148061148d575061148d836105a1611520565b6114a95760405162461bcd60e51b815260040161062e90612c23565b610ac8838383611d0c565b80546001019055565b6114c78282611e17565b5050565b6000610f1f836001600160a01b038416611e9c565b60006001600160e01b03198216636cdb3d1360e11b148061151157506001600160e01b031982166303a24d0760e21b145b8061066d575061066d82611ee6565b3390565b6001600160a01b03841661154a5760405162461bcd60e51b815260040161062e90613030565b815183511461156b5760405162461bcd60e51b815260040161062e90612fe8565b6000611575611520565b9050611586816000878787876116a6565b60005b845181101561163e578381815181106115b257634e487b7160e01b600052603260045260246000fd5b6020026020010151600260008784815181106115de57634e487b7160e01b600052603260045260246000fd5b602002602001015181526020019081526020016000206000886001600160a01b03166001600160a01b0316815260200190815260200160002060008282546116269190613131565b90915550819050611636816131c7565b915050611589565b50846001600160a01b031660006001600160a01b0316826001600160a01b03167f4a39dc06d4c0dbc64b70af90fd698a233a518aa5d07e595d983b8c0526c8f7fb878760405161168f929190612952565b60405180910390a4611136816000878787876116b4565b610a9e868686868686611f0b565b6116c6846001600160a01b0316611f3e565b15610a9e5760405163bc197c8160e01b81526001600160a01b0385169063bc197c81906116ff908990899088908890889060040161289c565b602060405180830381600087803b15801561171957600080fd5b505af1925050508015611749575060408051601f3d908101601f19168201909252611746918101906127a5565b60015b61179257611755613214565b80611760575061177a565b8060405162461bcd60e51b815260040161062e9190612994565b60405162461bcd60e51b815260040161062e906129a7565b6001600160e01b0319811663bc197c8160e01b1461138a5760405162461bcd60e51b815260040161062e90612a3d565b6117d66117ce83610828565b6104a2611520565b6114bd5760405162461bcd60e51b815260040161062e90612a85565b6117fa611520565b6001600160a01b0316816001600160a01b03161461182a5760405162461bcd60e51b815260040161062e90613071565b6114c78282611f44565b6000610f1f836001600160a01b038416611fc7565b611851610db2565b61186d5760405162461bcd60e51b815260040161062e90612ad4565b6005805460ff191690557f5db9ee0a495bf2e6ff9c91a7834c1ba4fdd244a5e8aa4e537bd38aeae4b073aa6118a0611520565b6040516118ad9190612888565b60405180910390a1565b6001600160a01b0383166118dd5760405162461bcd60e51b815260040161062e90612d7d565b80518251146118fe5760405162461bcd60e51b815260040161062e90612fe8565b6000611908611520565b9050611928818560008686604051806020016040528060008152506116a6565b60005b8351811015611a1957600084828151811061195657634e487b7160e01b600052603260045260246000fd5b60200260200101519050600084838151811061198257634e487b7160e01b600052603260045260246000fd5b60209081029190910181015160008481526002835260408082206001600160a01b038c1683529093529190912054909150818110156119d35760405162461bcd60e51b815260040161062e90612b93565b6119dd8282613149565b60009384526002602090815260408086206001600160a01b038c1687529091529093209290925550819050611a11816131c7565b91505061192b565b5060006001600160a01b0316846001600160a01b0316826001600160a01b03167f4a39dc06d4c0dbc64b70af90fd698a233a518aa5d07e595d983b8c0526c8f7fb8686604051611a6a929190612952565b60405180910390a450505050565b611a80610db2565b15611a9d5760405162461bcd60e51b815260040161062e90612cbc565b6005805460ff191660011790557f62e78cea01bee320cd4e420270b5ea74000d11b0c9f74754ebdbfc544b05a2586118a0611520565b6000610f1f83836120e4565b6001600160a01b038416611b055760405162461bcd60e51b815260040161062e90613030565b6000611b0f611520565b9050611b218160008761129688611be2565b60008481526002602090815260408083206001600160a01b038916845290915281208054859290611b53908490613131565b92505081905550846001600160a01b031660006001600160a01b0316826001600160a01b03166000805160206132cf8339815191528787604051611b989291906130d7565b60405180910390a461113681600087878787611c3b565b600061066d8261213d565b611bc66117ce83610828565b61182a5760405162461bcd60e51b815260040161062e90612c6c565b60408051600180825281830190925260609160009190602080830190803683370190505090508281600081518110611c2a57634e487b7160e01b600052603260045260246000fd5b602090810291909101015292915050565b611c4d846001600160a01b0316611f3e565b15610a9e5760405163f23a6e6160e01b81526001600160a01b0385169063f23a6e6190611c8690899089908890889088906004016128fa565b602060405180830381600087803b158015611ca057600080fd5b505af1925050508015611cd0575060408051601f3d908101601f19168201909252611ccd918101906127a5565b60015b611cdc57611755613214565b6001600160e01b0319811663f23a6e6160e01b1461138a5760405162461bcd60e51b815260040161062e90612a3d565b6001600160a01b038316611d325760405162461bcd60e51b815260040161062e90612d7d565b6000611d3c611520565b9050611d6c81856000611d4e87611be2565b611d5787611be2565b604051806020016040528060008152506116a6565b60008381526002602090815260408083206001600160a01b038816845290915290205482811015611daf5760405162461bcd60e51b815260040161062e90612b93565b611db98382613149565b60008581526002602090815260408083206001600160a01b03808b16808652919093528184209490945551919291908516906000805160206132cf83398151915290611e0890899089906130d7565b60405180910390a45050505050565b611e218282610f26565b6114c7576000828152602081815260408083206001600160a01b03851684529091529020805460ff19166001179055611e58611520565b6001600160a01b0316816001600160a01b0316837f2f8788117e7eff1d82e926ec794901d17c78024a50270940304540a733656f0d60405160405180910390a45050565b6000611ea88383612141565b611ede5750815460018181018455600084815260208082209093018490558454848252828601909352604090209190915561065c565b50600061065c565b60006001600160e01b03198216635a05180f60e01b148061066d575061066d82612159565b611f19868686868686610a9e565b611f21610db2565b15610a9e5760405162461bcd60e51b815260040161062e90612bd7565b3b151590565b611f4e8282610f26565b156114c7576000828152602081815260408083206001600160a01b03851684529091529020805460ff19169055611f83611520565b6001600160a01b0316816001600160a01b0316837ff6391f5c32d9c69d2a47ea670b442974b53935d1edc7fd64eb21e047a839171b60405160405180910390a45050565b600081815260018301602052604081205480156120da576000611feb600183613149565b8554909150600090611fff90600190613149565b9050600086600001828154811061202657634e487b7160e01b600052603260045260246000fd5b906000526020600020015490508087600001848154811061205757634e487b7160e01b600052603260045260246000fd5b60009182526020909120015561206e836001613131565b6000828152600189016020526040902055865487908061209e57634e487b7160e01b600052603160045260246000fd5b6001900381819060005260206000200160009055905586600101600087815260200190815260200160002060009055600194505050505061065c565b600091505061065c565b815460009082106121075760405162461bcd60e51b815260040161062e906129fb565b82600001828154811061212a57634e487b7160e01b600052603260045260246000fd5b9060005260206000200154905092915050565b5490565b60009081526001919091016020526040902054151590565b60006001600160e01b03198216637965db0b60e01b148061066d57506301ffc9a760e01b6001600160e01b031983161461066d565b604051806040016040528060008152602001600081525090565b60006001600160401b038311156121c1576121c16131f8565b6121d4601f8401601f19166020016130e5565b90508281528383830111156121e857600080fd5b828260208301376000602084830101529392505050565b80356001600160a01b038116811461067057600080fd5b600082601f830112612226578081fd5b8135602061223b6122368361310e565b6130e5565b8281528181019085830183850287018401881015612257578586fd5b855b8581101561227557813584529284019290840190600101612259565b5090979650505050505050565b8035801515811461067057600080fd5b600082601f8301126122a2578081fd5b610f1f838335602085016121a8565b6000602082840312156122c2578081fd5b610f1f826121ff565b600080604083850312156122dd578081fd5b6122e6836121ff565b91506122f4602084016121ff565b90509250929050565b600080600080600060a08688031215612314578081fd5b61231d866121ff565b945061232b602087016121ff565b935060408601356001600160401b0380821115612346578283fd5b61235289838a01612216565b94506060880135915080821115612367578283fd5b61237389838a01612216565b93506080880135915080821115612388578283fd5b5061239588828901612292565b9150509295509295909350565b600080600080600060a086880312156123b9578081fd5b6123c2866121ff565b94506123d0602087016121ff565b9350604086013592506060860135915060808601356001600160401b038111156123f8578182fd5b61239588828901612292565b60008060408385031215612416578182fd5b61241f836121ff565b915060208301356001600160401b03811115612439578182fd5b61244585828601612216565b9150509250929050565b600080600060608486031215612463578283fd5b61246c846121ff565b925060208401356001600160401b0380821115612487578384fd5b61249387838801612216565b935060408601359150808211156124a8578283fd5b506124b586828701612216565b9150509250925092565b600080600080608085870312156124d4578384fd5b6124dd856121ff565b935060208501356001600160401b03808211156124f8578485fd5b61250488838901612216565b94506040870135915080821115612519578384fd5b61252588838901612216565b9350606087013591508082111561253a578283fd5b5061254787828801612292565b91505092959194509250565b60008060408385031215612565578182fd5b61256e836121ff565b91506122f460208401612282565b6000806040838503121561258e578182fd5b612597836121ff565b946020939093013593505050565b6000806000606084860312156125b9578081fd5b6125c2846121ff565b95602085013595506040909401359392505050565b600080600080600060a086880312156125ee578283fd5b6125f7866121ff565b9450602086013593506040860135925060608601356001600160401b0380821115612620578283fd5b61262c89838a01612292565b93506080880135915080821115612641578283fd5b508601601f81018813612652578182fd5b612395888235602084016121a8565b60008060408385031215612673578182fd5b82356001600160401b0380821115612689578384fd5b818501915085601f83011261269c578384fd5b813560206126ac6122368361310e565b82815281810190858301838502870184018b10156126c8578889fd5b8896505b848710156126f1576126dd816121ff565b8352600196909601959183019183016126cc565b5096505086013592505080821115612707578283fd5b5061244585828601612216565b600060208284031215612725578081fd5b610f1f82612282565b60006020828403121561273f578081fd5b5035919050565b60008060408385031215612758578182fd5b823591506122f4602084016121ff565b6000806040838503121561277a578182fd5b50508035926020909101359150565b60006020828403121561279a578081fd5b8135610f1f816132b8565b6000602082840312156127b6578081fd5b8151610f1f816132b8565b600080600080608085870312156127d6578182fd5b84359350602085013592506127ed604086016121ff565b91506127fb606086016121ff565b905092959194509250565b6000815180845260208085019450808401835b8381101561283557815187529582019590820190600101612819565b509495945050505050565b60008151808452612858816020860160208601613160565b601f01601f19169290920160200192915050565b6000825161287e818460208701613160565b9190910192915050565b6001600160a01b0391909116815260200190565b6001600160a01b0386811682528516602082015260a0604082018190526000906128c890830186612806565b82810360608401526128da8186612806565b905082810360808401526128ee8185612840565b98975050505050505050565b6001600160a01b03868116825285166020820152604081018490526060810183905260a06080820181905260009061293490830184612840565b979650505050505050565b600060208252610f1f6020830184612806565b6000604082526129656040830185612806565b82810360208401526129778185612806565b95945050505050565b901515815260200190565b90815260200190565b600060208252610f1f6020830184612840565b60208082526034908201527f455243313135353a207472616e7366657220746f206e6f6e20455243313135356040820152732932b1b2b4bb32b91034b6b83632b6b2b73a32b960611b606082015260800190565b60208082526022908201527f456e756d657261626c655365743a20696e646578206f7574206f6620626f756e604082015261647360f01b606082015260800190565b60208082526028908201527f455243313135353a204552433131353552656365697665722072656a656374656040820152676420746f6b656e7360c01b606082015260800190565b6020808252602f908201527f416363657373436f6e74726f6c3a2073656e646572206d75737420626520616e60408201526e0818591b5a5b881d1bc819dc985b9d608a1b606082015260800190565b60208082526014908201527314185d5cd8589b194e881b9bdd081c185d5cd95960621b604082015260600190565b6020808252602b908201527f455243313135353a2062616c616e636520717565727920666f7220746865207a60408201526a65726f206164647265737360a81b606082015260800190565b60208082526026908201527f4f776e61626c653a206e6577206f776e657220697320746865207a65726f206160408201526564647265737360d01b606082015260800190565b60208082526024908201527f455243313135353a206275726e20616d6f756e7420657863656564732062616c604082015263616e636560e01b606082015260800190565b6020808252602c908201527f455243313135355061757361626c653a20746f6b656e207472616e736665722060408201526b1dda1a5b19481c185d5cd95960a21b606082015260800190565b60208082526029908201527f455243313135353a2063616c6c6572206973206e6f74206f776e6572206e6f7260408201526808185c1c1c9bdd995960ba1b606082015260800190565b60208082526030908201527f416363657373436f6e74726f6c3a2073656e646572206d75737420626520616e60408201526f2061646d696e20746f207265766f6b6560801b606082015260800190565b60208082526010908201526f14185d5cd8589b194e881c185d5cd95960821b604082015260600190565b60208082526025908201527f455243313135353a207472616e7366657220746f20746865207a65726f206164604082015264647265737360d81b606082015260800190565b60208082526032908201527f455243313135353a207472616e736665722063616c6c6572206973206e6f74206040820152711bdddb995c881b9bdc88185c1c1c9bdd995960721b606082015260800190565b60208082526023908201527f455243313135353a206275726e2066726f6d20746865207a65726f206164647260408201526265737360e81b606082015260800190565b60208082526038908201527f455243313135355072657365744d696e7465725061757365723a206d7573742060408201527f68617665206d696e74657220726f6c6520746f206d696e740000000000000000606082015260800190565b6020808252602a908201527f455243313135353a20696e73756666696369656e742062616c616e636520666f60408201526939103a3930b739b332b960b11b606082015260800190565b6020808252818101527f4f776e61626c653a2063616c6c6572206973206e6f7420746865206f776e6572604082015260600190565b6020808252603b908201527f455243313135355072657365744d696e7465725061757365723a206d7573742060408201527f686176652070617573657220726f6c6520746f20756e70617573650000000000606082015260800190565b60208082526039908201527f455243313135355072657365744d696e7465725061757365723a206d7573742060408201527f686176652070617573657220726f6c6520746f20706175736500000000000000606082015260800190565b60208082526029908201527f455243313135353a2073657474696e6720617070726f76616c20737461747573604082015268103337b91039b2b63360b91b606082015260800190565b60208082526029908201527f455243313135353a206163636f756e747320616e6420696473206c656e677468604082015268040dad2e6dac2e8c6d60bb1b606082015260800190565b60208082526028908201527f455243313135353a2069647320616e6420616d6f756e7473206c656e677468206040820152670dad2e6dac2e8c6d60c31b606082015260800190565b60208082526021908201527f455243313135353a206d696e7420746f20746865207a65726f206164647265736040820152607360f81b606082015260800190565b6020808252602f908201527f416363657373436f6e74726f6c3a2063616e206f6e6c792072656e6f756e636560408201526e103937b632b9903337b91039b2b63360891b606082015260800190565b815181526020918201519181019190915260400190565b918252602082015260400190565b6040518181016001600160401b0381118282101715613106576131066131f8565b604052919050565b60006001600160401b03821115613127576131276131f8565b5060209081020190565b60008219821115613144576131446131e2565b500190565b60008282101561315b5761315b6131e2565b500390565b60005b8381101561317b578181015183820152602001613163565b838111156108225750506000910152565b6002810460018216806131a057607f821691505b602082108114156131c157634e487b7160e01b600052602260045260246000fd5b50919050565b60006000198214156131db576131db6131e2565b5060010190565b634e487b7160e01b600052601160045260246000fd5b634e487b7160e01b600052604160045260246000fd5b60e01c90565b600060443d101561322457610db9565b600481823e6308c379a0613238825161320e565b1461324257610db9565b6040513d600319016004823e80513d6001600160401b0381602484011181841117156132715750505050610db9565b8284019250825191508082111561328b5750505050610db9565b503d830160208284010111156132a357505050610db9565b601f01601f1916810160200160405291505090565b6001600160e01b031981168114610f0457600080fdfec3d58168c5ae7397731d063d5bbf3d657854427343f4c083240f7aacaa2d0f629f2df0fed2c77648de5860a4cc508cd0818c85b8b8a1ab4ceeef8d981c8956a6a26469706673582212201e2307e0bd05363587d9626d72c2d0cbe2f38dbe212ea0664dc3220376622e2164736f6c63430008000033",
    "sourcePath": "d:/Development/boido_nft/contracts/Voido1155.sol",
    "compiler": {
        "name": "solc",
        "version": "0.8.0+commit.c7dfd78e"
    },
    "functionHashes": {
        "DEFAULT_ADMIN_ROLE()": "a217fddf",
        "MINTER_ROLE()": "d5391393",
        "PAUSER_ROLE()": "e63ab1e9",
        "balanceOf(address,uint256)": "00fdd58e",
        "balanceOfAccountTokens(address,uint256[])": "1c298fd8",
        "balanceOfBatch(address[],uint256[])": "4e1273f4",
        "burn(address,uint256,uint256)": "f5298aca",
        "burnBatch(address,uint256[],uint256[])": "6b20c454",
        "buyItemFromSale(uint256,uint256,address,address)": "5a9ce6c2",
        "getCountOfIds(uint256)": "8ea27619",
        "getIdInfo(uint256)": "361ad979",
        "getRoleAdmin(bytes32)": "248a9ca3",
        "getRoleMember(bytes32,uint256)": "9010d07c",
        "getRoleMemberCount(bytes32)": "ca15c873",
        "grantRole(bytes32,address)": "2f2ff15d",
        "hasRole(bytes32,address)": "91d14854",
        "isApprovedForAll(address,address)": "e985e9c5",
        "mint(address,uint256,uint256,bytes,string)": "c1341c4f",
        "mintBatch(address,uint256[],uint256[],bytes)": "1f7fdffa",
        "owner()": "8da5cb5b",
        "pause()": "8456cb59",
        "paused()": "5c975abb",
        "renounceOwnership()": "715018a6",
        "renounceRole(bytes32,address)": "36568abe",
        "revokeRole(bytes32,address)": "d547741f",
        "safeBatchTransferFrom(address,address,uint256[],uint256[],bytes)": "2eb2c2d6",
        "safeTransferFrom(address,address,uint256,uint256,bytes)": "f242432a",
        "setApprovalForAll(address,bool)": "a22cb465",
        "setPresale(bool)": "c54e73e3",
        "supportsInterface(bytes4)": "01ffc9a7",
        "transferOwnership(address)": "f2fde38b",
        "unpause()": "3f4ba83a",
        "uri(uint256)": "0e89341c"
    },
    "gasEstimates": {
        "creation": {
            "codeDepositCost": "2624800",
            "executionCost": "infinite",
            "totalCost": "infinite"
        },
        "external": {
            "DEFAULT_ADMIN_ROLE()": "295",
            "MINTER_ROLE()": "infinite",
            "PAUSER_ROLE()": "272",
            "balanceOf(address,uint256)": "1458",
            "balanceOfAccountTokens(address,uint256[])": "infinite",
            "balanceOfBatch(address[],uint256[])": "infinite",
            "burn(address,uint256,uint256)": "infinite",
            "burnBatch(address,uint256[],uint256[])": "infinite",
            "buyItemFromSale(uint256,uint256,address,address)": "infinite",
            "getCountOfIds(uint256)": "313",
            "getIdInfo(uint256)": "2213",
            "getRoleAdmin(bytes32)": "1248",
            "getRoleMember(bytes32,uint256)": "infinite",
            "getRoleMemberCount(bytes32)": "infinite",
            "grantRole(bytes32,address)": "infinite",
            "hasRole(bytes32,address)": "1428",
            "isApprovedForAll(address,address)": "infinite",
            "mint(address,uint256,uint256,bytes,string)": "infinite",
            "mintBatch(address,uint256[],uint256[],bytes)": "infinite",
            "owner()": "1149",
            "pause()": "infinite",
            "paused()": "1108",
            "renounceOwnership()": "24385",
            "renounceRole(bytes32,address)": "infinite",
            "revokeRole(bytes32,address)": "infinite",
            "safeBatchTransferFrom(address,address,uint256[],uint256[],bytes)": "infinite",
            "safeTransferFrom(address,address,uint256,uint256,bytes)": "infinite",
            "setApprovalForAll(address,bool)": "infinite",
            "setPresale(bool)": "infinite",
            "supportsInterface(bytes4)": "infinite",
            "transferOwnership(address)": "24633",
            "unpause()": "infinite",
            "uri(uint256)": "infinite"
        },
        "internal": {
            "_beforeTokenTransfer(address,address,address,uint256[] memory,uint256[] memory,bytes memory)": "infinite"
        }
    }
}