{
    "contractName": "Voido",
    "abi": [
        {
            "inputs": [
                {
                    "internalType": "string",
                    "name": "uri",
                    "type": "string"
                }
            ],
            "stateMutability": "nonpayable",
            "type": "constructor"
        },
        {
            "anonymous": false,
            "inputs": [
                {
                    "indexed": true,
                    "internalType": "address",
                    "name": "account",
                    "type": "address"
                },
                {
                    "indexed": true,
                    "internalType": "address",
                    "name": "operator",
                    "type": "address"
                },
                {
                    "indexed": false,
                    "internalType": "bool",
                    "name": "approved",
                    "type": "bool"
                }
            ],
            "name": "ApprovalForAll",
            "type": "event"
        },
        {
            "anonymous": false,
            "inputs": [
                {
                    "indexed": true,
                    "internalType": "address",
                    "name": "previousOwner",
                    "type": "address"
                },
                {
                    "indexed": true,
                    "internalType": "address",
                    "name": "newOwner",
                    "type": "address"
                }
            ],
            "name": "OwnershipTransferred",
            "type": "event"
        },
        {
            "anonymous": false,
            "inputs": [
                {
                    "indexed": true,
                    "internalType": "address",
                    "name": "operator",
                    "type": "address"
                },
                {
                    "indexed": true,
                    "internalType": "address",
                    "name": "from",
                    "type": "address"
                },
                {
                    "indexed": true,
                    "internalType": "address",
                    "name": "to",
                    "type": "address"
                },
                {
                    "indexed": false,
                    "internalType": "uint256[]",
                    "name": "ids",
                    "type": "uint256[]"
                },
                {
                    "indexed": false,
                    "internalType": "uint256[]",
                    "name": "values",
                    "type": "uint256[]"
                }
            ],
            "name": "TransferBatch",
            "type": "event"
        },
        {
            "anonymous": false,
            "inputs": [
                {
                    "indexed": true,
                    "internalType": "address",
                    "name": "operator",
                    "type": "address"
                },
                {
                    "indexed": true,
                    "internalType": "address",
                    "name": "from",
                    "type": "address"
                },
                {
                    "indexed": true,
                    "internalType": "address",
                    "name": "to",
                    "type": "address"
                },
                {
                    "indexed": false,
                    "internalType": "uint256",
                    "name": "id",
                    "type": "uint256"
                },
                {
                    "indexed": false,
                    "internalType": "uint256",
                    "name": "value",
                    "type": "uint256"
                }
            ],
            "name": "TransferSingle",
            "type": "event"
        },
        {
            "anonymous": false,
            "inputs": [
                {
                    "indexed": false,
                    "internalType": "string",
                    "name": "value",
                    "type": "string"
                },
                {
                    "indexed": true,
                    "internalType": "uint256",
                    "name": "id",
                    "type": "uint256"
                }
            ],
            "name": "URI",
            "type": "event"
        },
        {
            "inputs": [
                {
                    "internalType": "address",
                    "name": "account",
                    "type": "address"
                },
                {
                    "internalType": "uint256",
                    "name": "id",
                    "type": "uint256"
                }
            ],
            "name": "balanceOf",
            "outputs": [
                {
                    "internalType": "uint256",
                    "name": "",
                    "type": "uint256"
                }
            ],
            "stateMutability": "view",
            "type": "function"
        },
        {
            "inputs": [
                {
                    "internalType": "address[]",
                    "name": "accounts",
                    "type": "address[]"
                },
                {
                    "internalType": "uint256[]",
                    "name": "ids",
                    "type": "uint256[]"
                }
            ],
            "name": "balanceOfBatch",
            "outputs": [
                {
                    "internalType": "uint256[]",
                    "name": "",
                    "type": "uint256[]"
                }
            ],
            "stateMutability": "view",
            "type": "function"
        },
        {
            "inputs": [
                {
                    "internalType": "address",
                    "name": "account",
                    "type": "address"
                },
                {
                    "internalType": "uint256",
                    "name": "id",
                    "type": "uint256"
                },
                {
                    "internalType": "uint256",
                    "name": "value",
                    "type": "uint256"
                }
            ],
            "name": "burn",
            "outputs": [],
            "stateMutability": "nonpayable",
            "type": "function"
        },
        {
            "inputs": [
                {
                    "internalType": "address",
                    "name": "account",
                    "type": "address"
                },
                {
                    "internalType": "uint256[]",
                    "name": "ids",
                    "type": "uint256[]"
                },
                {
                    "internalType": "uint256[]",
                    "name": "values",
                    "type": "uint256[]"
                }
            ],
            "name": "burnBatch",
            "outputs": [],
            "stateMutability": "nonpayable",
            "type": "function"
        },
        {
            "inputs": [
                {
                    "internalType": "uint256",
                    "name": "id",
                    "type": "uint256"
                },
                {
                    "internalType": "uint256",
                    "name": "amount",
                    "type": "uint256"
                },
                {
                    "internalType": "address",
                    "name": "to",
                    "type": "address"
                },
                {
                    "internalType": "address payable",
                    "name": "from",
                    "type": "address"
                }
            ],
            "name": "buyItemFromPreSale",
            "outputs": [],
            "stateMutability": "payable",
            "type": "function"
        },
        {
            "inputs": [
                {
                    "internalType": "uint256[]",
                    "name": "ids",
                    "type": "uint256[]"
                }
            ],
            "name": "getItemDatas",
            "outputs": [
                {
                    "components": [
                        {
                            "internalType": "uint256",
                            "name": "price",
                            "type": "uint256"
                        },
                        {
                            "internalType": "uint256",
                            "name": "count",
                            "type": "uint256"
                        },
                        {
                            "internalType": "uint256",
                            "name": "rank",
                            "type": "uint256"
                        },
                        {
                            "internalType": "uint256",
                            "name": "atk",
                            "type": "uint256"
                        },
                        {
                            "internalType": "uint256",
                            "name": "def",
                            "type": "uint256"
                        }
                    ],
                    "internalType": "struct Voido.ItemProperty[]",
                    "name": "",
                    "type": "tuple[]"
                }
            ],
            "stateMutability": "view",
            "type": "function"
        },
        {
            "inputs": [
                {
                    "internalType": "uint256",
                    "name": "rank",
                    "type": "uint256"
                }
            ],
            "name": "getRankData",
            "outputs": [
                {
                    "components": [
                        {
                            "internalType": "uint256",
                            "name": "price",
                            "type": "uint256"
                        },
                        {
                            "internalType": "uint256",
                            "name": "maxAmount",
                            "type": "uint256"
                        }
                    ],
                    "internalType": "struct Voido.RankProperty",
                    "name": "",
                    "type": "tuple"
                }
            ],
            "stateMutability": "view",
            "type": "function"
        },
        {
            "inputs": [
                {
                    "internalType": "address",
                    "name": "_owner",
                    "type": "address"
                },
                {
                    "internalType": "address",
                    "name": "_operator",
                    "type": "address"
                }
            ],
            "name": "isApprovedForAll",
            "outputs": [
                {
                    "internalType": "bool",
                    "name": "isOperator",
                    "type": "bool"
                }
            ],
            "stateMutability": "view",
            "type": "function"
        },
        {
            "inputs": [
                {
                    "internalType": "address",
                    "name": "to",
                    "type": "address"
                },
                {
                    "internalType": "uint256",
                    "name": "id",
                    "type": "uint256"
                },
                {
                    "internalType": "uint256",
                    "name": "amount",
                    "type": "uint256"
                },
                {
                    "internalType": "uint256",
                    "name": "rank",
                    "type": "uint256"
                },
                {
                    "internalType": "uint256",
                    "name": "atk",
                    "type": "uint256"
                },
                {
                    "internalType": "uint256",
                    "name": "def",
                    "type": "uint256"
                },
                {
                    "internalType": "bytes",
                    "name": "data",
                    "type": "bytes"
                }
            ],
            "name": "mint",
            "outputs": [],
            "stateMutability": "nonpayable",
            "type": "function"
        },
        {
            "inputs": [
                {
                    "internalType": "address",
                    "name": "to",
                    "type": "address"
                },
                {
                    "internalType": "uint256[]",
                    "name": "ids",
                    "type": "uint256[]"
                },
                {
                    "internalType": "uint256[]",
                    "name": "amounts",
                    "type": "uint256[]"
                },
                {
                    "internalType": "uint256[]",
                    "name": "ranks",
                    "type": "uint256[]"
                },
                {
                    "internalType": "uint256[]",
                    "name": "atk",
                    "type": "uint256[]"
                },
                {
                    "internalType": "uint256[]",
                    "name": "def",
                    "type": "uint256[]"
                },
                {
                    "internalType": "bytes",
                    "name": "data",
                    "type": "bytes"
                }
            ],
            "name": "mintBatch",
            "outputs": [],
            "stateMutability": "nonpayable",
            "type": "function"
        },
        {
            "inputs": [],
            "name": "name",
            "outputs": [
                {
                    "internalType": "string",
                    "name": "",
                    "type": "string"
                }
            ],
            "stateMutability": "pure",
            "type": "function"
        },
        {
            "inputs": [],
            "name": "owner",
            "outputs": [
                {
                    "internalType": "address",
                    "name": "",
                    "type": "address"
                }
            ],
            "stateMutability": "view",
            "type": "function"
        },
        {
            "inputs": [],
            "name": "renounceOwnership",
            "outputs": [],
            "stateMutability": "nonpayable",
            "type": "function"
        },
        {
            "inputs": [
                {
                    "internalType": "address",
                    "name": "from",
                    "type": "address"
                },
                {
                    "internalType": "address",
                    "name": "to",
                    "type": "address"
                },
                {
                    "internalType": "uint256[]",
                    "name": "ids",
                    "type": "uint256[]"
                },
                {
                    "internalType": "uint256[]",
                    "name": "amounts",
                    "type": "uint256[]"
                },
                {
                    "internalType": "bytes",
                    "name": "data",
                    "type": "bytes"
                }
            ],
            "name": "safeBatchTransferFrom",
            "outputs": [],
            "stateMutability": "nonpayable",
            "type": "function"
        },
        {
            "inputs": [
                {
                    "internalType": "address",
                    "name": "from",
                    "type": "address"
                },
                {
                    "internalType": "address",
                    "name": "to",
                    "type": "address"
                },
                {
                    "internalType": "uint256",
                    "name": "id",
                    "type": "uint256"
                },
                {
                    "internalType": "uint256",
                    "name": "amount",
                    "type": "uint256"
                },
                {
                    "internalType": "bytes",
                    "name": "data",
                    "type": "bytes"
                }
            ],
            "name": "safeTransferFrom",
            "outputs": [],
            "stateMutability": "nonpayable",
            "type": "function"
        },
        {
            "inputs": [
                {
                    "internalType": "address",
                    "name": "operator",
                    "type": "address"
                },
                {
                    "internalType": "bool",
                    "name": "approved",
                    "type": "bool"
                }
            ],
            "name": "setApprovalForAll",
            "outputs": [],
            "stateMutability": "nonpayable",
            "type": "function"
        },
        {
            "inputs": [
                {
                    "internalType": "address",
                    "name": "_proxyRegistryAddress",
                    "type": "address"
                },
                {
                    "internalType": "bool",
                    "name": "_isProxyEnabled",
                    "type": "bool"
                },
                {
                    "internalType": "bool",
                    "name": "_presale",
                    "type": "bool"
                }
            ],
            "name": "setConfig",
            "outputs": [],
            "stateMutability": "nonpayable",
            "type": "function"
        },
        {
            "inputs": [
                {
                    "internalType": "uint256",
                    "name": "id",
                    "type": "uint256"
                },
                {
                    "internalType": "uint256",
                    "name": "rank",
                    "type": "uint256"
                },
                {
                    "internalType": "uint256",
                    "name": "count",
                    "type": "uint256"
                },
                {
                    "internalType": "uint256",
                    "name": "atk",
                    "type": "uint256"
                },
                {
                    "internalType": "uint256",
                    "name": "def",
                    "type": "uint256"
                },
                {
                    "internalType": "uint256",
                    "name": "price",
                    "type": "uint256"
                }
            ],
            "name": "setItemData",
            "outputs": [],
            "stateMutability": "nonpayable",
            "type": "function"
        },
        {
            "inputs": [
                {
                    "internalType": "uint256",
                    "name": "rank",
                    "type": "uint256"
                },
                {
                    "internalType": "uint256",
                    "name": "price",
                    "type": "uint256"
                },
                {
                    "internalType": "uint256",
                    "name": "maxAmount",
                    "type": "uint256"
                }
            ],
            "name": "setRankData",
            "outputs": [],
            "stateMutability": "nonpayable",
            "type": "function"
        },
        {
            "inputs": [
                {
                    "internalType": "bytes4",
                    "name": "interfaceId",
                    "type": "bytes4"
                }
            ],
            "name": "supportsInterface",
            "outputs": [
                {
                    "internalType": "bool",
                    "name": "",
                    "type": "bool"
                }
            ],
            "stateMutability": "view",
            "type": "function"
        },
        {
            "inputs": [],
            "name": "symbol",
            "outputs": [
                {
                    "internalType": "string",
                    "name": "",
                    "type": "string"
                }
            ],
            "stateMutability": "pure",
            "type": "function"
        },
        {
            "inputs": [
                {
                    "internalType": "address",
                    "name": "newOwner",
                    "type": "address"
                }
            ],
            "name": "transferOwnership",
            "outputs": [],
            "stateMutability": "nonpayable",
            "type": "function"
        },
        {
            "inputs": [
                {
                    "internalType": "uint256",
                    "name": "",
                    "type": "uint256"
                }
            ],
            "name": "uri",
            "outputs": [
                {
                    "internalType": "string",
                    "name": "",
                    "type": "string"
                }
            ],
            "stateMutability": "view",
            "type": "function"
        }
    ],
    "bytecode": "60806040526004805460ff60a01b191690556007805460ff191660011790553480156200002b57600080fd5b50604051620030fa380380620030fa8339810160408190526200004e916200030b565b600080546001600160a01b031916339081178255604051839282917f8be0079c531659141344cd1fd0a4f28419497f9722a3daafe3b4186f6b6457e0908290a3506200009a816200024c565b505060408051808201825267016345785d8a000081526014602080830191825260016000818152600580845294517f1471eb6eb2c5e789fc3de43f8ce62938c7d1836ec861730447e2ada8fd81017b5592517f1471eb6eb2c5e789fc3de43f8ce62938c7d1836ec861730447e2ada8fd81017c5584518086018652670429d069189e00008152600a8184019081526002855285845290517f89832631fb3c3307a103ba2c84ab569c64d6182a18893dcd163f0f1c2090733a55517f89832631fb3c3307a103ba2c84ab569c64d6182a18893dcd163f0f1c2090733b5584518086018652670de0b6b3a764000081528083018581526003855285845290517fa9bc9a3a348c357ba16b37005d7e6b3236198c0e939f4af8c5f19b8deeb8ebc055517fa9bc9a3a348c357ba16b37005d7e6b3236198c0e939f4af8c5f19b8deeb8ebc155845180860190955268056bc75e2d63100000855284820190815260049092529190915290517f3eec716f11ba9e820c81ca75eb978ffb45831ef8b7a53e5e422c26008e1ca6d555517f3eec716f11ba9e820c81ca75eb978ffb45831ef8b7a53e5e422c26008e1ca6d6556200043a565b80516200026190600390602084019062000265565b5050565b8280546200027390620003e7565b90600052602060002090601f016020900481019282620002975760008555620002e2565b82601f10620002b257805160ff1916838001178555620002e2565b82800160010185558215620002e2579182015b82811115620002e2578251825591602001919060010190620002c5565b50620002f0929150620002f4565b5090565b5b80821115620002f05760008155600101620002f5565b600060208083850312156200031f57600080fd5b82516001600160401b03808211156200033757600080fd5b818501915085601f8301126200034c57600080fd5b81518181111562000361576200036162000424565b604051601f8201601f19908116603f011681019083821181831017156200038c576200038c62000424565b816040528281528886848701011115620003a557600080fd5b600093505b82841015620003c95784840186015181850187015292850192620003aa565b82841115620003db5760008684830101525b98975050505050505050565b600181811c90821680620003fc57607f821691505b602082108114156200041e57634e487b7160e01b600052602260045260246000fd5b50919050565b634e487b7160e01b600052604160045260246000fd5b612cb0806200044a6000396000f3fe60806040526004361061013f5760003560e01c80636b20c454116100b6578063dc8624711161006f578063dc86247114610411578063e985e9c514610431578063f242432a14610451578063f2fde38b14610471578063f5298aca14610491578063fac672c3146104b157600080fd5b80636b20c4541461033a578063715018a61461035a5780638da5cb5b1461036f57806395d89b4114610397578063a22cb465146103c4578063cf4d04d3146103e457600080fd5b806312d6d6561161010857806312d6d65614610219578063137f2c061461023957806328b661ba146102ad5780632eb2c2d6146102cd5780634e1273f4146102ed578063524c4dc61461031a57600080fd5b8062fdd58e1461014457806301ffc9a71461017757806306fdde03146101a75780630e89341c146101e457806311b654ba14610204575b600080fd5b34801561015057600080fd5b5061016461015f366004612318565b6104d1565b6040519081526020015b60405180910390f35b34801561018357600080fd5b506101976101923660046124f7565b61056d565b604051901515815260200161016e565b3480156101b357600080fd5b5060408051808201909152600b81526a426f69646f2053746f726560a81b60208201525b60405161016e91906127fa565b3480156101f057600080fd5b506101d76101ff36600461254e565b610578565b610217610212366004612567565b61060c565b005b34801561022557600080fd5b50610217610234366004612198565b610965565b34801561024557600080fd5b5061029261025436600461254e565b604080518082019091526000808252602082015250600090815260056020908152604091829020825180840190935280548352600101549082015290565b6040805182518152602092830151928101929092520161016e565b3480156102b957600080fd5b506102176102c8366004612379565b610a4b565b3480156102d957600080fd5b506102176102e836600461200e565b610a97565b3480156102f957600080fd5b5061030d6103083660046123e9565b610d0a565b60405161016e91906127b9565b34801561032657600080fd5b506102176103353660046125b1565b610e33565b34801561034657600080fd5b50610217610355366004612123565b610e8b565b34801561036657600080fd5b50610217610ed3565b34801561037b57600080fd5b506000546040516001600160a01b03909116815260200161016e565b3480156103a357600080fd5b50604080518082019091526004815263159bda5960e21b60208201526101d7565b3480156103d057600080fd5b506102176103df36600461229e565b610f47565b3480156103f057600080fd5b506104046103ff3660046124bb565b61101e565b60405161016e919061274b565b34801561041d57600080fd5b5061021761042c3660046122d3565b61114b565b34801561043d57600080fd5b5061019761044c366004611fd5565b6111b9565b34801561045d57600080fd5b5061021761046c3660046120bb565b61129f565b34801561047d57600080fd5b5061021761048c366004611fb8565b611407565b34801561049d57600080fd5b506102176104ac366004612344565b6114f1565b3480156104bd57600080fd5b506102176104cc3660046125dd565b611534565b60006001600160a01b0383166105425760405162461bcd60e51b815260206004820152602b60248201527f455243313135353a2062616c616e636520717565727920666f7220746865207a60448201526a65726f206164647265737360a81b60648201526084015b60405180910390fd5b5060008181526001602090815260408083206001600160a01b03861684529091529020545b92915050565b6000610567826115b5565b60606003805461058790612ae3565b80601f01602080910402602001604051908101604052809291908181526020018280546105b390612ae3565b80156106005780601f106105d557610100808354040283529160200191610600565b820191906000526020600020905b8154815290600101906020018083116105e357829003601f168201915b50505050509050919050565b6000848152600660209081526040808320815160a0810183528154815260018083015482860152600283015482850181905260038401546060840152600490930154608083015291855260058452938290208251808401909352805483520154918101919091526106856000546001600160a01b031690565b6001600160a01b0316836001600160a01b0316146106da5760405162461bcd60e51b8152602060048201526012602482015271333937b69036bab9ba1031329037bbb732b960711b6044820152606401610539565b60075460ff1615156001146107275760405162461bcd60e51b81526020600482015260136024820152721c1c995cd85b19481a5cc8191a5cd8589b1959606a1b6044820152606401610539565b6000851161076c5760405162461bcd60e51b81526020600482015260126024820152710616d6f756e74206d757374206265203e20360741b6044820152606401610539565b600034116107b05760405162461bcd60e51b8152602060048201526011602482015270076616c7565206d757374206265203e203607c1b6044820152606401610539565b81516107f25760405162461bcd60e51b815260206004820152601160248201527007072696365206d757374206265203e203607c1b6044820152606401610539565b600082602001511161083e5760405162461bcd60e51b815260206004820152601560248201527406974656d636f756e74206d757374206265203e203605c1b6044820152606401610539565b80602001518583602001516108539190612a95565b11156108a15760405162461bcd60e51b815260206004820181905260248201527f6974656d636f756e74206578636565647320616c6c6f77656420616d6f756e746044820152606401610539565b81516108ae908690612aad565b34146108f35760405162461bcd60e51b81526020600482015260146024820152731c1c9a58d9481a5cc81b9bdd0818dbdc9c9958dd60621b6044820152606401610539565b61090e84878760405180602001604052806000815250611605565b6040516001600160a01b038416903480156108fc02916000818181858888f19350505050158015610943573d6000803e3d6000fd5b5061095d86868460400151856060015186608001516116d5565b505050505050565b6000546001600160a01b0316331461098f5760405162461bcd60e51b8152600401610539906129b4565b61099b87878784611823565b60005b8651811015610a4157610a318782815181106109bc576109bc612b7b565b60200260200101518783815181106109d6576109d6612b7b565b60200260200101518784815181106109f0576109f0612b7b565b6020026020010151878581518110610a0a57610a0a612b7b565b6020026020010151878681518110610a2457610a24612b7b565b60200260200101516116d5565b610a3a81612b4a565b905061099e565b5050505050505050565b6000546001600160a01b03163314610a755760405162461bcd60e51b8152600401610539906129b4565b610a8187878784611605565b610a8e86868686866116d5565b50505050505050565b8151835114610ab85760405162461bcd60e51b8152600401610539906129e9565b6001600160a01b038416610ade5760405162461bcd60e51b8152600401610539906128e2565b6001600160a01b038516331480610afa5750610afa85336111b9565b610b615760405162461bcd60e51b815260206004820152603260248201527f455243313135353a207472616e736665722063616c6c6572206973206e6f74206044820152711bdddb995c881b9bdc88185c1c1c9bdd995960721b6064820152608401610539565b33610b7081878787878761197e565b60005b8451811015610ca4576000858281518110610b9057610b90612b7b565b602002602001015190506000858381518110610bae57610bae612b7b565b60209081029190910181015160008481526001835260408082206001600160a01b038e168352909352919091205490915081811015610bff5760405162461bcd60e51b81526004016105399061296a565b610c098282612acc565b6001600085815260200190815260200160002060008c6001600160a01b03166001600160a01b0316815260200190815260200160002081905550816001600085815260200190815260200160002060008b6001600160a01b03166001600160a01b031681526020019081526020016000206000828254610c899190612a95565b9250508190555050505080610c9d90612b4a565b9050610b73565b50846001600160a01b0316866001600160a01b0316826001600160a01b03167f4a39dc06d4c0dbc64b70af90fd698a233a518aa5d07e595d983b8c0526c8f7fb8787604051610cf49291906127cc565b60405180910390a461095d818787878787611983565b60608151835114610d6f5760405162461bcd60e51b815260206004820152602960248201527f455243313135353a206163636f756e747320616e6420696473206c656e677468604482015268040dad2e6dac2e8c6d60bb1b6064820152608401610539565b600083516001600160401b03811115610d8a57610d8a612b91565b604051908082528060200260200182016040528015610db3578160200160208202803683370190505b50905060005b8451811015610e2b57610dfe858281518110610dd757610dd7612b7b565b6020026020010151858381518110610df157610df1612b7b565b60200260200101516104d1565b828281518110610e1057610e10612b7b565b6020908102919091010152610e2481612b4a565b9050610db9565b509392505050565b6000546001600160a01b03163314610e5d5760405162461bcd60e51b8152600401610539906129b4565b6040805180820182529283526020808401928352600094855260059052909220905181559051600190910155565b6001600160a01b038316331480610ea75750610ea783336111b9565b610ec35760405162461bcd60e51b815260040161053990612899565b610ece838383611aee565b505050565b6000546001600160a01b03163314610efd5760405162461bcd60e51b8152600401610539906129b4565b600080546040516001600160a01b03909116907f8be0079c531659141344cd1fd0a4f28419497f9722a3daafe3b4186f6b6457e0908390a3600080546001600160a01b0319169055565b336001600160a01b0383161415610fb25760405162461bcd60e51b815260206004820152602960248201527f455243313135353a2073657474696e6720617070726f76616c20737461747573604482015268103337b91039b2b63360b91b6064820152608401610539565b3360008181526002602090815260408083206001600160a01b03871680855290835292819020805460ff191686151590811790915590519081529192917f17307eab39ab6107e8899845ad3d59bd9653f200f220920489ca2b5937696c31910160405180910390a35050565b6060600082516001600160401b0381111561103b5761103b612b91565b60405190808252806020026020018201604052801561109e57816020015b61108b6040518060a0016040528060008152602001600081526020016000815260200160008152602001600081525090565b8152602001906001900390816110595790505b50905060005b835181101561114457600660008583815181106110c3576110c3612b7b565b602002602001015181526020019081526020016000206040518060a00160405290816000820154815260200160018201548152602001600282015481526020016003820154815260200160048201548152505082828151811061112857611128612b7b565b60200260200101819052508061113d90612b4a565b90506110a4565b5092915050565b6000546001600160a01b031633146111755760405162461bcd60e51b8152600401610539906129b4565b60048054921515600160a01b026001600160a81b03199093166001600160a01b0390941693909317919091179091556007805491151560ff19909216919091179055565b600454600090600160a01b900460ff161561126e576004805460405163c455279160e01b81526001600160a01b038681169382019390935290821691841690829063c45527919060240160206040518083038186803b15801561121b57600080fd5b505afa15801561122f573d6000803e3d6000fd5b505050506040513d601f19601f820116820180604052508101906112539190612531565b6001600160a01b0316141561126c576001915050610567565b505b6001600160a01b0380841660009081526002602090815260408083209386168352929052205460ff165b9392505050565b6001600160a01b0384166112c55760405162461bcd60e51b8152600401610539906128e2565b6001600160a01b0385163314806112e157506112e185336111b9565b6112fd5760405162461bcd60e51b815260040161053990612899565b3361131c81878761130d88611c8c565b61131688611c8c565b8761197e565b60008481526001602090815260408083206001600160a01b038a1684529091529020548381101561135f5760405162461bcd60e51b81526004016105399061296a565b6113698482612acc565b60008681526001602090815260408083206001600160a01b038c811685529252808320939093558816815290812080548692906113a7908490612a95565b909155505060408051868152602081018690526001600160a01b03808916928a821692918616917fc3d58168c5ae7397731d063d5bbf3d657854427343f4c083240f7aacaa2d0f62910160405180910390a4610a8e828888888888611cd7565b6000546001600160a01b031633146114315760405162461bcd60e51b8152600401610539906129b4565b6001600160a01b0381166114965760405162461bcd60e51b815260206004820152602660248201527f4f776e61626c653a206e6577206f776e657220697320746865207a65726f206160448201526564647265737360d01b6064820152608401610539565b600080546040516001600160a01b03808516939216917f8be0079c531659141344cd1fd0a4f28419497f9722a3daafe3b4186f6b6457e091a3600080546001600160a01b0319166001600160a01b0392909216919091179055565b6001600160a01b03831633148061150d575061150d83336111b9565b6115295760405162461bcd60e51b815260040161053990612899565b610ece838383611da1565b6000546001600160a01b0316331461155e5760405162461bcd60e51b8152600401610539906129b4565b6040805160a081018252918252602080830195865282820196875260608301948552608083019384526000978852600690529095209451855591516001850155915160028401559051600383015551600490910155565b60006001600160e01b03198216636cdb3d1360e11b14806115e657506001600160e01b031982166303a24d0760e21b145b8061056757506301ffc9a760e01b6001600160e01b0319831614610567565b6001600160a01b03841661162b5760405162461bcd60e51b815260040161053990612a31565b3361163c8160008761130d88611c8c565b60008481526001602090815260408083206001600160a01b03891684529091528120805485929061166e908490612a95565b909155505060408051858152602081018590526001600160a01b0380881692600092918516917fc3d58168c5ae7397731d063d5bbf3d657854427343f4c083240f7aacaa2d0f62910160405180910390a46116ce81600087878787611cd7565b5050505050565b600085815260066020908152604091829020825160a08101845281548152600182015492810183905260028201549381019390935260038101546060840152600401546080830152156117a8576040518060a00160405280826000015181526020018683602001516117479190612a95565b8152604080840151602080840191909152606080860151838501526080808701519482019490945260008b8152600683528390208551815591850151600183015591840151600282015590830151600382015591015160049091015561095d565b506000838152600560209081526040808320815180830183528154815260019182015481850152825160a0810184529051815280840198895280830197885260608101968752608081019586529884526006909252909120955186559351938501939093559051600284015551600383015551600490910155565b6001600160a01b0384166118495760405162461bcd60e51b815260040161053990612a31565b815183511461186a5760405162461bcd60e51b8152600401610539906129e9565b3361187a8160008787878761197e565b60005b84518110156119165783818151811061189857611898612b7b565b6020026020010151600160008784815181106118b6576118b6612b7b565b602002602001015181526020019081526020016000206000886001600160a01b03166001600160a01b0316815260200190815260200160002060008282546118fe9190612a95565b9091555081905061190e81612b4a565b91505061187d565b50846001600160a01b031660006001600160a01b0316826001600160a01b03167f4a39dc06d4c0dbc64b70af90fd698a233a518aa5d07e595d983b8c0526c8f7fb87876040516119679291906127cc565b60405180910390a46116ce81600087878787611983565b61095d565b6001600160a01b0384163b1561095d5760405163bc197c8160e01b81526001600160a01b0385169063bc197c81906119c790899089908890889088906004016126a8565b602060405180830381600087803b1580156119e157600080fd5b505af1925050508015611a11575060408051601f3d908101601f19168201909252611a0e91810190612514565b60015b611abe57611a1d612ba7565b806308c379a01415611a575750611a32612bc3565b80611a3d5750611a59565b8060405162461bcd60e51b815260040161053991906127fa565b505b60405162461bcd60e51b815260206004820152603460248201527f455243313135353a207472616e7366657220746f206e6f6e20455243313135356044820152732932b1b2b4bb32b91034b6b83632b6b2b73a32b960611b6064820152608401610539565b6001600160e01b0319811663bc197c8160e01b14610a8e5760405162461bcd60e51b81526004016105399061280d565b6001600160a01b038316611b145760405162461bcd60e51b815260040161053990612927565b8051825114611b355760405162461bcd60e51b8152600401610539906129e9565b6000339050611b588185600086866040518060200160405280600081525061197e565b60005b8351811015611c2d576000848281518110611b7857611b78612b7b565b602002602001015190506000848381518110611b9657611b96612b7b565b60209081029190910181015160008481526001835260408082206001600160a01b038c168352909352919091205490915081811015611be75760405162461bcd60e51b815260040161053990612855565b611bf18282612acc565b60009384526001602090815260408086206001600160a01b038c1687529091529093209290925550819050611c2581612b4a565b915050611b5b565b5060006001600160a01b0316846001600160a01b0316826001600160a01b03167f4a39dc06d4c0dbc64b70af90fd698a233a518aa5d07e595d983b8c0526c8f7fb8686604051611c7e9291906127cc565b60405180910390a450505050565b60408051600180825281830190925260609160009190602080830190803683370190505090508281600081518110611cc657611cc6612b7b565b602090810291909101015292915050565b6001600160a01b0384163b1561095d5760405163f23a6e6160e01b81526001600160a01b0385169063f23a6e6190611d1b9089908990889088908890600401612706565b602060405180830381600087803b158015611d3557600080fd5b505af1925050508015611d65575060408051601f3d908101601f19168201909252611d6291810190612514565b60015b611d7157611a1d612ba7565b6001600160e01b0319811663f23a6e6160e01b14610a8e5760405162461bcd60e51b81526004016105399061280d565b6001600160a01b038316611dc75760405162461bcd60e51b815260040161053990612927565b33611df681856000611dd887611c8c565b611de187611c8c565b6040518060200160405280600081525061197e565b60008381526001602090815260408083206001600160a01b038816845290915290205482811015611e395760405162461bcd60e51b815260040161053990612855565b611e438382612acc565b60008581526001602090815260408083206001600160a01b038a811680865291845282852095909555815189815292830188905292938616917fc3d58168c5ae7397731d063d5bbf3d657854427343f4c083240f7aacaa2d0f62910160405180910390a45050505050565b8035611eb981612c4c565b919050565b600082601f830112611ecf57600080fd5b81356020611edc82612a72565b604051611ee98282612b1e565b8381528281019150858301600585901b87018401881015611f0957600080fd5b60005b85811015611f2857813584529284019290840190600101611f0c565b5090979650505050505050565b80358015158114611eb957600080fd5b600082601f830112611f5657600080fd5b81356001600160401b03811115611f6f57611f6f612b91565b604051611f86601f8301601f191660200182612b1e565b818152846020838601011115611f9b57600080fd5b816020850160208301376000918101602001919091529392505050565b600060208284031215611fca57600080fd5b813561129881612c4c565b60008060408385031215611fe857600080fd5b8235611ff381612c4c565b9150602083013561200381612c4c565b809150509250929050565b600080600080600060a0868803121561202657600080fd5b853561203181612c4c565b9450602086013561204181612c4c565b935060408601356001600160401b038082111561205d57600080fd5b61206989838a01611ebe565b9450606088013591508082111561207f57600080fd5b61208b89838a01611ebe565b935060808801359150808211156120a157600080fd5b506120ae88828901611f45565b9150509295509295909350565b600080600080600060a086880312156120d357600080fd5b85356120de81612c4c565b945060208601356120ee81612c4c565b9350604086013592506060860135915060808601356001600160401b0381111561211757600080fd5b6120ae88828901611f45565b60008060006060848603121561213857600080fd5b833561214381612c4c565b925060208401356001600160401b038082111561215f57600080fd5b61216b87838801611ebe565b9350604086013591508082111561218157600080fd5b5061218e86828701611ebe565b9150509250925092565b600080600080600080600060e0888a0312156121b357600080fd5b6121bc88611eae565b965060208801356001600160401b03808211156121d857600080fd5b6121e48b838c01611ebe565b975060408a01359150808211156121fa57600080fd5b6122068b838c01611ebe565b965060608a013591508082111561221c57600080fd5b6122288b838c01611ebe565b955060808a013591508082111561223e57600080fd5b61224a8b838c01611ebe565b945060a08a013591508082111561226057600080fd5b61226c8b838c01611ebe565b935060c08a013591508082111561228257600080fd5b5061228f8a828b01611f45565b91505092959891949750929550565b600080604083850312156122b157600080fd5b82356122bc81612c4c565b91506122ca60208401611f35565b90509250929050565b6000806000606084860312156122e857600080fd5b83356122f381612c4c565b925061230160208501611f35565b915061230f60408501611f35565b90509250925092565b6000806040838503121561232b57600080fd5b823561233681612c4c565b946020939093013593505050565b60008060006060848603121561235957600080fd5b833561236481612c4c565b95602085013595506040909401359392505050565b600080600080600080600060e0888a03121561239457600080fd5b873561239f81612c4c565b96506020880135955060408801359450606088013593506080880135925060a0880135915060c08801356001600160401b038111156123dd57600080fd5b61228f8a828b01611f45565b600080604083850312156123fc57600080fd5b82356001600160401b038082111561241357600080fd5b818501915085601f83011261242757600080fd5b8135602061243482612a72565b6040516124418282612b1e565b8381528281019150858301600585901b870184018b101561246157600080fd5b600096505b8487101561248d57803561247981612c4c565b835260019690960195918301918301612466565b50965050860135925050808211156124a457600080fd5b506124b185828601611ebe565b9150509250929050565b6000602082840312156124cd57600080fd5b81356001600160401b038111156124e357600080fd5b6124ef84828501611ebe565b949350505050565b60006020828403121561250957600080fd5b813561129881612c64565b60006020828403121561252657600080fd5b815161129881612c64565b60006020828403121561254357600080fd5b815161129881612c4c565b60006020828403121561256057600080fd5b5035919050565b6000806000806080858703121561257d57600080fd5b8435935060208501359250604085013561259681612c4c565b915060608501356125a681612c4c565b939692955090935050565b6000806000606084860312156125c657600080fd5b505081359360208301359350604090920135919050565b60008060008060008060c087890312156125f657600080fd5b505084359660208601359650604086013595606081013595506080810135945060a0013592509050565b600081518084526020808501945080840160005b8381101561265057815187529582019590820190600101612634565b509495945050505050565b6000815180845260005b8181101561268157602081850181015186830182015201612665565b81811115612693576000602083870101525b50601f01601f19169290920160200192915050565b6001600160a01b0386811682528516602082015260a0604082018190526000906126d490830186612620565b82810360608401526126e68186612620565b905082810360808401526126fa818561265b565b98975050505050505050565b6001600160a01b03868116825285166020820152604081018490526060810183905260a0608082018190526000906127409083018461265b565b979650505050505050565b602080825282518282018190526000919060409081850190868401855b828110156127ac5781518051855286810151878601528581015186860152606080820151908601526080908101519085015260a09093019290850190600101612768565b5091979650505050505050565b6020815260006112986020830184612620565b6040815260006127df6040830185612620565b82810360208401526127f18185612620565b95945050505050565b602081526000611298602083018461265b565b60208082526028908201527f455243313135353a204552433131353552656365697665722072656a656374656040820152676420746f6b656e7360c01b606082015260800190565b60208082526024908201527f455243313135353a206275726e20616d6f756e7420657863656564732062616c604082015263616e636560e01b606082015260800190565b60208082526029908201527f455243313135353a2063616c6c6572206973206e6f74206f776e6572206e6f7260408201526808185c1c1c9bdd995960ba1b606082015260800190565b60208082526025908201527f455243313135353a207472616e7366657220746f20746865207a65726f206164604082015264647265737360d81b606082015260800190565b60208082526023908201527f455243313135353a206275726e2066726f6d20746865207a65726f206164647260408201526265737360e81b606082015260800190565b6020808252602a908201527f455243313135353a20696e73756666696369656e742062616c616e636520666f60408201526939103a3930b739b332b960b11b606082015260800190565b6020808252818101527f4f776e61626c653a2063616c6c6572206973206e6f7420746865206f776e6572604082015260600190565b60208082526028908201527f455243313135353a2069647320616e6420616d6f756e7473206c656e677468206040820152670dad2e6dac2e8c6d60c31b606082015260800190565b60208082526021908201527f455243313135353a206d696e7420746f20746865207a65726f206164647265736040820152607360f81b606082015260800190565b60006001600160401b03821115612a8b57612a8b612b91565b5060051b60200190565b60008219821115612aa857612aa8612b65565b500190565b6000816000190483118215151615612ac757612ac7612b65565b500290565b600082821015612ade57612ade612b65565b500390565b600181811c90821680612af757607f821691505b60208210811415612b1857634e487b7160e01b600052602260045260246000fd5b50919050565b601f8201601f191681016001600160401b0381118282101715612b4357612b43612b91565b6040525050565b6000600019821415612b5e57612b5e612b65565b5060010190565b634e487b7160e01b600052601160045260246000fd5b634e487b7160e01b600052603260045260246000fd5b634e487b7160e01b600052604160045260246000fd5b600060033d1115612bc05760046000803e5060005160e01c5b90565b600060443d1015612bd15790565b6040516003193d81016004833e81513d6001600160401b038160248401118184111715612c0057505050505090565b8285019150815181811115612c185750505050505090565b843d8701016020828501011115612c325750505050505090565b612c4160208286010187612b1e565b509095945050505050565b6001600160a01b0381168114612c6157600080fd5b50565b6001600160e01b031981168114612c6157600080fdfea26469706673582212203330869b92d964bf641277825d07e8cb1a416d8e5b4b7bbce2b274e4ae8d843e64736f6c63430008070033",
    "sourcePath": "e:/Development/boido_nft/contracts/Voido1155.sol",
    "compiler": {
        "name": "solc",
        "version": "0.8.7+commit.e28d00a7"
    },
    "functionHashes": {
        "balanceOf(address,uint256)": "00fdd58e",
        "balanceOfBatch(address[],uint256[])": "4e1273f4",
        "burn(address,uint256,uint256)": "f5298aca",
        "burnBatch(address,uint256[],uint256[])": "6b20c454",
        "buyItemFromPreSale(uint256,uint256,address,address)": "11b654ba",
        "getItemDatas(uint256[])": "cf4d04d3",
        "getRankData(uint256)": "137f2c06",
        "isApprovedForAll(address,address)": "e985e9c5",
        "mint(address,uint256,uint256,uint256,uint256,uint256,bytes)": "28b661ba",
        "mintBatch(address,uint256[],uint256[],uint256[],uint256[],uint256[],bytes)": "12d6d656",
        "name()": "06fdde03",
        "owner()": "8da5cb5b",
        "renounceOwnership()": "715018a6",
        "safeBatchTransferFrom(address,address,uint256[],uint256[],bytes)": "2eb2c2d6",
        "safeTransferFrom(address,address,uint256,uint256,bytes)": "f242432a",
        "setApprovalForAll(address,bool)": "a22cb465",
        "setConfig(address,bool,bool)": "dc862471",
        "setItemData(uint256,uint256,uint256,uint256,uint256,uint256)": "fac672c3",
        "setRankData(uint256,uint256,uint256)": "524c4dc6",
        "supportsInterface(bytes4)": "01ffc9a7",
        "symbol()": "95d89b41",
        "transferOwnership(address)": "f2fde38b",
        "uri(uint256)": "0e89341c"
    },
    "gasEstimates": {
        "creation": {
            "codeDepositCost": "2288000",
            "executionCost": "infinite",
            "totalCost": "infinite"
        },
        "external": {
            "balanceOf(address,uint256)": "2697",
            "balanceOfBatch(address[],uint256[])": "infinite",
            "burn(address,uint256,uint256)": "infinite",
            "burnBatch(address,uint256[],uint256[])": "infinite",
            "buyItemFromPreSale(uint256,uint256,address,address)": "infinite",
            "getItemDatas(uint256[])": "infinite",
            "getRankData(uint256)": "4753",
            "isApprovedForAll(address,address)": "infinite",
            "mint(address,uint256,uint256,uint256,uint256,uint256,bytes)": "infinite",
            "mintBatch(address,uint256[],uint256[],uint256[],uint256[],uint256[],bytes)": "infinite",
            "name()": "infinite",
            "owner()": "2368",
            "renounceOwnership()": "30210",
            "safeBatchTransferFrom(address,address,uint256[],uint256[],bytes)": "infinite",
            "safeTransferFrom(address,address,uint256,uint256,bytes)": "infinite",
            "setApprovalForAll(address,bool)": "26763",
            "setConfig(address,bool,bool)": "infinite",
            "setItemData(uint256,uint256,uint256,uint256,uint256,uint256)": "113357",
            "setRankData(uint256,uint256,uint256)": "46899",
            "supportsInterface(bytes4)": "infinite",
            "symbol()": "infinite",
            "transferOwnership(address)": "30482",
            "uri(uint256)": "infinite"
        },
        "internal": {
            "_beforeTokenTransfer(address,address,address,uint256[] memory,uint256[] memory,bytes memory)": "33",
            "changeIdData(uint256,uint256,uint256,uint256,uint256)": "infinite"
        }
    }
}