{
  "contractName": "Voido",
  "abi": [
    {
      "inputs": [
        {
          "internalType": "string",
          "name": "uri",
          "type": "string"
        }
      ],
      "stateMutability": "nonpayable",
      "type": "constructor"
    },
    {
      "anonymous": false,
      "inputs": [
        {
          "indexed": true,
          "internalType": "address",
          "name": "account",
          "type": "address"
        },
        {
          "indexed": true,
          "internalType": "address",
          "name": "operator",
          "type": "address"
        },
        {
          "indexed": false,
          "internalType": "bool",
          "name": "approved",
          "type": "bool"
        }
      ],
      "name": "ApprovalForAll",
      "type": "event"
    },
    {
      "anonymous": false,
      "inputs": [
        {
          "indexed": false,
          "internalType": "address",
          "name": "sender",
          "type": "address"
        },
        {
          "indexed": false,
          "internalType": "uint256",
          "name": "amount",
          "type": "uint256"
        }
      ],
      "name": "LogDeposit",
      "type": "event"
    },
    {
      "anonymous": false,
      "inputs": [
        {
          "indexed": false,
          "internalType": "address",
          "name": "sender",
          "type": "address"
        },
        {
          "indexed": false,
          "internalType": "address",
          "name": "to",
          "type": "address"
        },
        {
          "indexed": false,
          "internalType": "uint256",
          "name": "amount",
          "type": "uint256"
        }
      ],
      "name": "LogTransfer",
      "type": "event"
    },
    {
      "anonymous": false,
      "inputs": [
        {
          "indexed": true,
          "internalType": "address",
          "name": "previousOwner",
          "type": "address"
        },
        {
          "indexed": true,
          "internalType": "address",
          "name": "newOwner",
          "type": "address"
        }
      ],
      "name": "OwnershipTransferred",
      "type": "event"
    },
    {
      "anonymous": false,
      "inputs": [
        {
          "indexed": true,
          "internalType": "address",
          "name": "operator",
          "type": "address"
        },
        {
          "indexed": true,
          "internalType": "address",
          "name": "from",
          "type": "address"
        },
        {
          "indexed": true,
          "internalType": "address",
          "name": "to",
          "type": "address"
        },
        {
          "indexed": false,
          "internalType": "uint256[]",
          "name": "ids",
          "type": "uint256[]"
        },
        {
          "indexed": false,
          "internalType": "uint256[]",
          "name": "values",
          "type": "uint256[]"
        }
      ],
      "name": "TransferBatch",
      "type": "event"
    },
    {
      "anonymous": false,
      "inputs": [
        {
          "indexed": true,
          "internalType": "address",
          "name": "operator",
          "type": "address"
        },
        {
          "indexed": true,
          "internalType": "address",
          "name": "from",
          "type": "address"
        },
        {
          "indexed": true,
          "internalType": "address",
          "name": "to",
          "type": "address"
        },
        {
          "indexed": false,
          "internalType": "uint256",
          "name": "id",
          "type": "uint256"
        },
        {
          "indexed": false,
          "internalType": "uint256",
          "name": "value",
          "type": "uint256"
        }
      ],
      "name": "TransferSingle",
      "type": "event"
    },
    {
      "anonymous": false,
      "inputs": [
        {
          "indexed": false,
          "internalType": "string",
          "name": "value",
          "type": "string"
        },
        {
          "indexed": true,
          "internalType": "uint256",
          "name": "id",
          "type": "uint256"
        }
      ],
      "name": "URI",
      "type": "event"
    },
    {
      "inputs": [
        {
          "internalType": "address",
          "name": "account",
          "type": "address"
        },
        {
          "internalType": "uint256",
          "name": "id",
          "type": "uint256"
        }
      ],
      "name": "balanceOf",
      "outputs": [
        {
          "internalType": "uint256",
          "name": "",
          "type": "uint256"
        }
      ],
      "stateMutability": "view",
      "type": "function",
      "constant": true
    },
    {
      "inputs": [
        {
          "internalType": "address[]",
          "name": "accounts",
          "type": "address[]"
        },
        {
          "internalType": "uint256[]",
          "name": "ids",
          "type": "uint256[]"
        }
      ],
      "name": "balanceOfBatch",
      "outputs": [
        {
          "internalType": "uint256[]",
          "name": "",
          "type": "uint256[]"
        }
      ],
      "stateMutability": "view",
      "type": "function",
      "constant": true
    },
    {
      "inputs": [
        {
          "internalType": "address",
          "name": "account",
          "type": "address"
        },
        {
          "internalType": "uint256",
          "name": "id",
          "type": "uint256"
        },
        {
          "internalType": "uint256",
          "name": "value",
          "type": "uint256"
        }
      ],
      "name": "burn",
      "outputs": [],
      "stateMutability": "nonpayable",
      "type": "function"
    },
    {
      "inputs": [
        {
          "internalType": "address",
          "name": "account",
          "type": "address"
        },
        {
          "internalType": "uint256[]",
          "name": "ids",
          "type": "uint256[]"
        },
        {
          "internalType": "uint256[]",
          "name": "values",
          "type": "uint256[]"
        }
      ],
      "name": "burnBatch",
      "outputs": [],
      "stateMutability": "nonpayable",
      "type": "function"
    },
    {
      "inputs": [],
      "name": "owner",
      "outputs": [
        {
          "internalType": "address",
          "name": "",
          "type": "address"
        }
      ],
      "stateMutability": "view",
      "type": "function",
      "constant": true
    },
    {
      "inputs": [],
      "name": "renounceOwnership",
      "outputs": [],
      "stateMutability": "nonpayable",
      "type": "function"
    },
    {
      "inputs": [
        {
          "internalType": "address",
          "name": "from",
          "type": "address"
        },
        {
          "internalType": "address",
          "name": "to",
          "type": "address"
        },
        {
          "internalType": "uint256[]",
          "name": "ids",
          "type": "uint256[]"
        },
        {
          "internalType": "uint256[]",
          "name": "amounts",
          "type": "uint256[]"
        },
        {
          "internalType": "bytes",
          "name": "data",
          "type": "bytes"
        }
      ],
      "name": "safeBatchTransferFrom",
      "outputs": [],
      "stateMutability": "nonpayable",
      "type": "function"
    },
    {
      "inputs": [
        {
          "internalType": "address",
          "name": "from",
          "type": "address"
        },
        {
          "internalType": "address",
          "name": "to",
          "type": "address"
        },
        {
          "internalType": "uint256",
          "name": "id",
          "type": "uint256"
        },
        {
          "internalType": "uint256",
          "name": "amount",
          "type": "uint256"
        },
        {
          "internalType": "bytes",
          "name": "data",
          "type": "bytes"
        }
      ],
      "name": "safeTransferFrom",
      "outputs": [],
      "stateMutability": "nonpayable",
      "type": "function"
    },
    {
      "inputs": [
        {
          "internalType": "address",
          "name": "operator",
          "type": "address"
        },
        {
          "internalType": "bool",
          "name": "approved",
          "type": "bool"
        }
      ],
      "name": "setApprovalForAll",
      "outputs": [],
      "stateMutability": "nonpayable",
      "type": "function"
    },
    {
      "inputs": [
        {
          "internalType": "address",
          "name": "newOwner",
          "type": "address"
        }
      ],
      "name": "transferOwnership",
      "outputs": [],
      "stateMutability": "nonpayable",
      "type": "function"
    },
    {
      "inputs": [
        {
          "internalType": "uint256",
          "name": "",
          "type": "uint256"
        }
      ],
      "name": "uri",
      "outputs": [
        {
          "internalType": "string",
          "name": "",
          "type": "string"
        }
      ],
      "stateMutability": "view",
      "type": "function",
      "constant": true
    },
    {
      "inputs": [
        {
          "internalType": "address",
          "name": "_proxyRegistryAddress",
          "type": "address"
        },
        {
          "internalType": "bool",
          "name": "_isProxyEnabled",
          "type": "bool"
        },
        {
          "internalType": "bool",
          "name": "_presale",
          "type": "bool"
        }
      ],
      "name": "setConfig",
      "outputs": [],
      "stateMutability": "nonpayable",
      "type": "function"
    },
    {
      "inputs": [],
      "name": "name",
      "outputs": [
        {
          "internalType": "string",
          "name": "",
          "type": "string"
        }
      ],
      "stateMutability": "pure",
      "type": "function",
      "constant": true
    },
    {
      "inputs": [],
      "name": "symbol",
      "outputs": [
        {
          "internalType": "string",
          "name": "",
          "type": "string"
        }
      ],
      "stateMutability": "pure",
      "type": "function",
      "constant": true
    },
    {
      "inputs": [
        {
          "internalType": "address",
          "name": "_owner",
          "type": "address"
        },
        {
          "internalType": "address",
          "name": "_operator",
          "type": "address"
        }
      ],
      "name": "isApprovedForAll",
      "outputs": [
        {
          "internalType": "bool",
          "name": "isOperator",
          "type": "bool"
        }
      ],
      "stateMutability": "view",
      "type": "function",
      "constant": true
    },
    {
      "inputs": [
        {
          "internalType": "address",
          "name": "to",
          "type": "address"
        },
        {
          "internalType": "uint256",
          "name": "id",
          "type": "uint256"
        },
        {
          "internalType": "uint256",
          "name": "amount",
          "type": "uint256"
        },
        {
          "internalType": "uint256",
          "name": "rank",
          "type": "uint256"
        },
        {
          "internalType": "uint256",
          "name": "atk",
          "type": "uint256"
        },
        {
          "internalType": "uint256",
          "name": "def",
          "type": "uint256"
        },
        {
          "internalType": "bytes",
          "name": "data",
          "type": "bytes"
        }
      ],
      "name": "mint",
      "outputs": [],
      "stateMutability": "nonpayable",
      "type": "function"
    },
    {
      "inputs": [
        {
          "internalType": "address",
          "name": "to",
          "type": "address"
        },
        {
          "internalType": "uint256[]",
          "name": "ids",
          "type": "uint256[]"
        },
        {
          "internalType": "uint256[]",
          "name": "amounts",
          "type": "uint256[]"
        },
        {
          "internalType": "uint256[]",
          "name": "ranks",
          "type": "uint256[]"
        },
        {
          "internalType": "uint256[]",
          "name": "atk",
          "type": "uint256[]"
        },
        {
          "internalType": "uint256[]",
          "name": "def",
          "type": "uint256[]"
        },
        {
          "internalType": "bytes",
          "name": "data",
          "type": "bytes"
        }
      ],
      "name": "mintBatch",
      "outputs": [],
      "stateMutability": "nonpayable",
      "type": "function"
    },
    {
      "inputs": [
        {
          "internalType": "bytes4",
          "name": "interfaceId",
          "type": "bytes4"
        }
      ],
      "name": "supportsInterface",
      "outputs": [
        {
          "internalType": "bool",
          "name": "",
          "type": "bool"
        }
      ],
      "stateMutability": "view",
      "type": "function",
      "constant": true
    },
    {
      "inputs": [
        {
          "internalType": "uint256",
          "name": "id",
          "type": "uint256"
        },
        {
          "internalType": "uint256",
          "name": "amount",
          "type": "uint256"
        },
        {
          "internalType": "address",
          "name": "to",
          "type": "address"
        },
        {
          "internalType": "address payable",
          "name": "from",
          "type": "address"
        }
      ],
      "name": "buyItemFromPreSale",
      "outputs": [],
      "stateMutability": "payable",
      "type": "function",
      "payable": true
    },
    {
      "inputs": [
        {
          "internalType": "uint256",
          "name": "rank",
          "type": "uint256"
        },
        {
          "internalType": "uint256",
          "name": "price",
          "type": "uint256"
        },
        {
          "internalType": "uint256",
          "name": "maxAmount",
          "type": "uint256"
        }
      ],
      "name": "setRankData",
      "outputs": [],
      "stateMutability": "nonpayable",
      "type": "function"
    },
    {
      "inputs": [
        {
          "internalType": "uint256",
          "name": "id",
          "type": "uint256"
        },
        {
          "internalType": "uint256",
          "name": "rank",
          "type": "uint256"
        },
        {
          "internalType": "uint256",
          "name": "count",
          "type": "uint256"
        },
        {
          "internalType": "uint256",
          "name": "atk",
          "type": "uint256"
        },
        {
          "internalType": "uint256",
          "name": "def",
          "type": "uint256"
        },
        {
          "internalType": "uint256",
          "name": "price",
          "type": "uint256"
        }
      ],
      "name": "setItemData",
      "outputs": [],
      "stateMutability": "nonpayable",
      "type": "function"
    },
    {
      "inputs": [
        {
          "internalType": "uint256",
          "name": "rank",
          "type": "uint256"
        }
      ],
      "name": "getRankData",
      "outputs": [
        {
          "components": [
            {
              "internalType": "uint256",
              "name": "price",
              "type": "uint256"
            },
            {
              "internalType": "uint256",
              "name": "maxAmount",
              "type": "uint256"
            }
          ],
          "internalType": "struct Voido.RankProperty",
          "name": "",
          "type": "tuple"
        }
      ],
      "stateMutability": "view",
      "type": "function",
      "constant": true
    },
    {
      "inputs": [
        {
          "internalType": "uint256[]",
          "name": "ids",
          "type": "uint256[]"
        }
      ],
      "name": "getItemDatas",
      "outputs": [
        {
          "components": [
            {
              "internalType": "uint256",
              "name": "price",
              "type": "uint256"
            },
            {
              "internalType": "uint256",
              "name": "count",
              "type": "uint256"
            },
            {
              "internalType": "uint256",
              "name": "rank",
              "type": "uint256"
            },
            {
              "internalType": "uint256",
              "name": "atk",
              "type": "uint256"
            },
            {
              "internalType": "uint256",
              "name": "def",
              "type": "uint256"
            }
          ],
          "internalType": "struct Voido.ItemProperty[]",
          "name": "",
          "type": "tuple[]"
        }
      ],
      "stateMutability": "view",
      "type": "function",
      "constant": true
    }
  ],
  "bytecode": "0x60806040526000600460146101000a81548160ff0219169083151502179055506001600760006101000a81548160ff0219169083151502179055503480156200004757600080fd5b50604051620056ca380380620056ca83398181016040528101906200006d9190620003a2565b806000620000806200025c60201b60201c565b9050806000806101000a81548173ffffffffffffffffffffffffffffffffffffffff021916908373ffffffffffffffffffffffffffffffffffffffff1602179055508073ffffffffffffffffffffffffffffffffffffffff16600073ffffffffffffffffffffffffffffffffffffffff167f8be0079c531659141344cd1fd0a4f28419497f9722a3daafe3b4186f6b6457e060405160405180910390a3506200012f816200026460201b60201c565b50604051806040016040528067016345785d8a000081526020016014815250600560006001815260200190815260200160002060008201518160000155602082015181600101559050506040518060400160405280670429d069189e00008152602001600a815250600560006002815260200190815260200160002060008201518160000155602082015181600101559050506040518060400160405280670de0b6b3a76400008152602001600581525060056000600381526020019081526020016000206000820151816000015560208201518160010155905050604051806040016040528068056bc75e2d6310000081526020016001815250600560006004815260200190815260200160002060008201518160000155602082015181600101559050505062000518565b600033905090565b80600390805190602001906200027c92919062000280565b5050565b8280546200028e9062000484565b90600052602060002090601f016020900481019282620002b25760008555620002fe565b82601f10620002cd57805160ff1916838001178555620002fe565b82800160010185558215620002fe579182015b82811115620002fd578251825591602001919060010190620002e0565b5b5090506200030d919062000311565b5090565b5b808211156200032c57600081600090555060010162000312565b5090565b60006200034762000341846200041b565b620003e7565b9050828152602081018484840111156200036057600080fd5b6200036d8482856200044e565b509392505050565b600082601f8301126200038757600080fd5b81516200039984826020860162000330565b91505092915050565b600060208284031215620003b557600080fd5b600082015167ffffffffffffffff811115620003d057600080fd5b620003de8482850162000375565b91505092915050565b6000604051905081810181811067ffffffffffffffff82111715620004115762000410620004e9565b5b8060405250919050565b600067ffffffffffffffff821115620004395762000438620004e9565b5b601f19601f8301169050602081019050919050565b60005b838110156200046e57808201518184015260208101905062000451565b838111156200047e576000848401525b50505050565b600060028204905060018216806200049d57607f821691505b60208210811415620004b457620004b3620004ba565b5b50919050565b7f4e487b7100000000000000000000000000000000000000000000000000000000600052602260045260246000fd5b7f4e487b7100000000000000000000000000000000000000000000000000000000600052604160045260246000fd5b6151a280620005286000396000f3fe60806040526004361061013f5760003560e01c80636b20c454116100b6578063dc8624711161006f578063dc8624711461045c578063e985e9c514610485578063f242432a146104c2578063f2fde38b146104eb578063f5298aca14610514578063fac672c31461053d5761013f565b80636b20c45414610360578063715018a6146103895780638da5cb5b146103a057806395d89b41146103cb578063a22cb465146103f6578063cf4d04d31461041f5761013f565b806312d6d6561161010857806312d6d65614610242578063137f2c061461026b57806328b661ba146102a85780632eb2c2d6146102d15780634e1273f4146102fa578063524c4dc6146103375761013f565b8062fdd58e1461014457806301ffc9a71461018157806306fdde03146101be5780630e89341c146101e957806311b654ba14610226575b600080fd5b34801561015057600080fd5b5061016b6004803603810190610166919061393f565b610566565b6040516101789190614ba1565b60405180910390f35b34801561018d57600080fd5b506101a860048036038101906101a39190613b2d565b610630565b6040516101b59190614869565b60405180910390f35b3480156101ca57600080fd5b506101d3610642565b6040516101e09190614884565b60405180910390f35b3480156101f557600080fd5b50610210600480360381019061020b9190613ba8565b61067f565b60405161021d9190614884565b60405180910390f35b610240600480360381019061023b9190613bd1565b610713565b005b34801561024e57600080fd5b5061026960048036038101906102649190613786565b610aaa565b005b34801561027757600080fd5b50610292600480360381019061028d9190613ba8565b610ca6565b60405161029f9190614b86565b60405180910390f35b3480156102b457600080fd5b506102cf60048036038101906102ca91906139ca565b610ce7565b005b3480156102dd57600080fd5b506102f860048036038101906102f391906135b9565b610d85565b005b34801561030657600080fd5b50610321600480360381019061031c9190613a80565b61117e565b60405161032e9190614810565b60405180910390f35b34801561034357600080fd5b5061035e60048036038101906103599190613c34565b61132f565b005b34801561036c57600080fd5b5061038760048036038101906103829190613707565b6113ef565b005b34801561039557600080fd5b5061039e61148c565b005b3480156103ac57600080fd5b506103b56115c6565b6040516103c29190614711565b60405180910390f35b3480156103d757600080fd5b506103e06115ef565b6040516103ed9190614884565b60405180910390f35b34801561040257600080fd5b5061041d600480360381019061041891906138b4565b61162c565b005b34801561042b57600080fd5b5061044660048036038101906104419190613aec565b6117ad565b60405161045391906147ee565b60405180910390f35b34801561046857600080fd5b50610483600480360381019061047e91906138f0565b611929565b005b34801561049157600080fd5b506104ac60048036038101906104a7919061357d565b611a1f565b6040516104b99190614869565b60405180910390f35b3480156104ce57600080fd5b506104e960048036038101906104e49190613678565b611b38565b005b3480156104f757600080fd5b50610512600480360381019061050d9190613554565b611e53565b005b34801561052057600080fd5b5061053b6004803603810190610536919061397b565b611ffc565b005b34801561054957600080fd5b50610564600480360381019061055f9190613c83565b612099565b005b60008073ffffffffffffffffffffffffffffffffffffffff168373ffffffffffffffffffffffffffffffffffffffff1614156105d7576040517f08c379a00000000000000000000000000000000000000000000000000000000081526004016105ce90614906565b60405180910390fd5b6001600083815260200190815260200160002060008473ffffffffffffffffffffffffffffffffffffffff1673ffffffffffffffffffffffffffffffffffffffff16815260200190815260200160002054905092915050565b600061063b8261218c565b9050919050565b60606040518060400160405280600b81526020017f426f69646f2053746f7265000000000000000000000000000000000000000000815250905090565b60606003805461068e90614f06565b80601f01602080910402602001604051908101604052809291908181526020018280546106ba90614f06565b80156107075780601f106106dc57610100808354040283529160200191610707565b820191906000526020600020905b8154815290600101906020018083116106ea57829003601f168201915b50505050509050919050565b6000600660008681526020019081526020016000206040518060a0016040529081600082015481526020016001820154815260200160028201548152602001600382015481526020016004820154815250509050600060056000836040015181526020019081526020016000206040518060400160405290816000820154815260200160018201548152505090506107a96115c6565b73ffffffffffffffffffffffffffffffffffffffff168373ffffffffffffffffffffffffffffffffffffffff1614610816576040517f08c379a000000000000000000000000000000000000000000000000000000000815260040161080d90614aa6565b60405180910390fd5b60011515600760009054906101000a900460ff1615151461086c576040517f08c379a0000000000000000000000000000000000000000000000000000000008152600401610863906148e6565b60405180910390fd5b600085116108af576040517f08c379a00000000000000000000000000000000000000000000000000000000081526004016108a690614926565b60405180910390fd5b600034116108f2576040517f08c379a00000000000000000000000000000000000000000000000000000000081526004016108e990614a06565b60405180910390fd5b6000826000015111610939576040517f08c379a000000000000000000000000000000000000000000000000000000000815260040161093090614ae6565b60405180910390fd5b6000826020015111610980576040517f08c379a000000000000000000000000000000000000000000000000000000000815260040161097790614ac6565b60405180910390fd5b80602001518583602001516109959190614d48565b11156109d6576040517f08c379a00000000000000000000000000000000000000000000000000000000081526004016109cd906149e6565b60405180910390fd5b8482600001516109e69190614d9e565b3414610a27576040517f08c379a0000000000000000000000000000000000000000000000000000000008152600401610a1e90614a66565b60405180910390fd5b610a428487876040518060200160405280600081525061226e565b8273ffffffffffffffffffffffffffffffffffffffff166108fc349081150290604051600060405180830381858888f19350505050158015610a88573d6000803e3d6000fd5b50610aa28686846040015185606001518660800151612405565b505050505050565b610ab26125ac565b73ffffffffffffffffffffffffffffffffffffffff16610ad06115c6565b73ffffffffffffffffffffffffffffffffffffffff1614610b26576040517f08c379a0000000000000000000000000000000000000000000000000000000008152600401610b1d90614a86565b60405180910390fd5b610b32878787846125b4565b60005b8651811015610c9c57610c8b878281518110610b7a577f4e487b7100000000000000000000000000000000000000000000000000000000600052603260045260246000fd5b6020026020010151878381518110610bbb577f4e487b7100000000000000000000000000000000000000000000000000000000600052603260045260246000fd5b6020026020010151878481518110610bfc577f4e487b7100000000000000000000000000000000000000000000000000000000600052603260045260246000fd5b6020026020010151878581518110610c3d577f4e487b7100000000000000000000000000000000000000000000000000000000600052603260045260246000fd5b6020026020010151878681518110610c7e577f4e487b7100000000000000000000000000000000000000000000000000000000600052603260045260246000fd5b6020026020010151612405565b80610c9590614f38565b9050610b35565b5050505050505050565b610cae6132e4565b60056000838152602001908152602001600020604051806040016040529081600082015481526020016001820154815250509050919050565b610cef6125ac565b73ffffffffffffffffffffffffffffffffffffffff16610d0d6115c6565b73ffffffffffffffffffffffffffffffffffffffff1614610d63576040517f08c379a0000000000000000000000000000000000000000000000000000000008152600401610d5a90614a86565b60405180910390fd5b610d6f8787878461226e565b610d7c8686868686612405565b50505050505050565b8151835114610dc9576040517f08c379a0000000000000000000000000000000000000000000000000000000008152600401610dc090614b46565b60405180910390fd5b600073ffffffffffffffffffffffffffffffffffffffff168473ffffffffffffffffffffffffffffffffffffffff161415610e39576040517f08c379a0000000000000000000000000000000000000000000000000000000008152600401610e30906149a6565b60405180910390fd5b610e416125ac565b73ffffffffffffffffffffffffffffffffffffffff168573ffffffffffffffffffffffffffffffffffffffff161480610e875750610e8685610e816125ac565b611a1f565b5b610ec6576040517f08c379a0000000000000000000000000000000000000000000000000000000008152600401610ebd906149c6565b60405180910390fd5b6000610ed06125ac565b9050610ee081878787878761281f565b60005b84518110156110e9576000858281518110610f27577f4e487b7100000000000000000000000000000000000000000000000000000000600052603260045260246000fd5b602002602001015190506000858381518110610f6c577f4e487b7100000000000000000000000000000000000000000000000000000000600052603260045260246000fd5b6020026020010151905060006001600084815260200190815260200160002060008b73ffffffffffffffffffffffffffffffffffffffff1673ffffffffffffffffffffffffffffffffffffffff1681526020019081526020016000205490508181101561100e576040517f08c379a000000000000000000000000000000000000000000000000000000000815260040161100590614a46565b60405180910390fd5b818161101a9190614df8565b6001600085815260200190815260200160002060008c73ffffffffffffffffffffffffffffffffffffffff1673ffffffffffffffffffffffffffffffffffffffff16815260200190815260200160002081905550816001600085815260200190815260200160002060008b73ffffffffffffffffffffffffffffffffffffffff1673ffffffffffffffffffffffffffffffffffffffff16815260200190815260200160002060008282546110ce9190614d48565b92505081905550505050806110e290614f38565b9050610ee3565b508473ffffffffffffffffffffffffffffffffffffffff168673ffffffffffffffffffffffffffffffffffffffff168273ffffffffffffffffffffffffffffffffffffffff167f4a39dc06d4c0dbc64b70af90fd698a233a518aa5d07e595d983b8c0526c8f7fb8787604051611160929190614832565b60405180910390a4611176818787878787612835565b505050505050565b606081518351146111c4576040517f08c379a00000000000000000000000000000000000000000000000000000000081526004016111bb90614b26565b60405180910390fd5b6000835167ffffffffffffffff811115611207577f4e487b7100000000000000000000000000000000000000000000000000000000600052604160045260246000fd5b6040519080825280602002602001820160405280156112355781602001602082028036833780820191505090505b50905060005b8451811015611324576112ce858281518110611280577f4e487b7100000000000000000000000000000000000000000000000000000000600052603260045260246000fd5b60200260200101518583815181106112c1577f4e487b7100000000000000000000000000000000000000000000000000000000600052603260045260246000fd5b6020026020010151610566565b828281518110611307577f4e487b7100000000000000000000000000000000000000000000000000000000600052603260045260246000fd5b6020026020010181815250508061131d90614f38565b905061123b565b508091505092915050565b6113376125ac565b73ffffffffffffffffffffffffffffffffffffffff166113556115c6565b73ffffffffffffffffffffffffffffffffffffffff16146113ab576040517f08c379a00000000000000000000000000000000000000000000000000000000081526004016113a290614a86565b60405180910390fd5b604051806040016040528083815260200182815250600560008581526020019081526020016000206000820151816000015560208201518160010155905050505050565b6113f76125ac565b73ffffffffffffffffffffffffffffffffffffffff168373ffffffffffffffffffffffffffffffffffffffff16148061143d575061143c836114376125ac565b611a1f565b5b61147c576040517f08c379a000000000000000000000000000000000000000000000000000000000815260040161147390614986565b60405180910390fd5b611487838383612a05565b505050565b6114946125ac565b73ffffffffffffffffffffffffffffffffffffffff166114b26115c6565b73ffffffffffffffffffffffffffffffffffffffff1614611508576040517f08c379a00000000000000000000000000000000000000000000000000000000081526004016114ff90614a86565b60405180910390fd5b600073ffffffffffffffffffffffffffffffffffffffff1660008054906101000a900473ffffffffffffffffffffffffffffffffffffffff1673ffffffffffffffffffffffffffffffffffffffff167f8be0079c531659141344cd1fd0a4f28419497f9722a3daafe3b4186f6b6457e060405160405180910390a360008060006101000a81548173ffffffffffffffffffffffffffffffffffffffff021916908373ffffffffffffffffffffffffffffffffffffffff160217905550565b60008060009054906101000a900473ffffffffffffffffffffffffffffffffffffffff16905090565b60606040518060400160405280600481526020017f566f696400000000000000000000000000000000000000000000000000000000815250905090565b8173ffffffffffffffffffffffffffffffffffffffff1661164b6125ac565b73ffffffffffffffffffffffffffffffffffffffff1614156116a2576040517f08c379a000000000000000000000000000000000000000000000000000000000815260040161169990614b06565b60405180910390fd5b80600260006116af6125ac565b73ffffffffffffffffffffffffffffffffffffffff1673ffffffffffffffffffffffffffffffffffffffff16815260200190815260200160002060008473ffffffffffffffffffffffffffffffffffffffff1673ffffffffffffffffffffffffffffffffffffffff16815260200190815260200160002060006101000a81548160ff0219169083151502179055508173ffffffffffffffffffffffffffffffffffffffff1661175c6125ac565b73ffffffffffffffffffffffffffffffffffffffff167f17307eab39ab6107e8899845ad3d59bd9653f200f220920489ca2b5937696c31836040516117a19190614869565b60405180910390a35050565b60606000825167ffffffffffffffff8111156117f2577f4e487b7100000000000000000000000000000000000000000000000000000000600052604160045260246000fd5b60405190808252806020026020018201604052801561182b57816020015b6118186132fe565b8152602001906001900390816118105790505b50905060005b835181101561191f5760066000858381518110611877577f4e487b7100000000000000000000000000000000000000000000000000000000600052603260045260246000fd5b602002602001015181526020019081526020016000206040518060a001604052908160008201548152602001600182015481526020016002820154815260200160038201548152602001600482015481525050828281518110611903577f4e487b7100000000000000000000000000000000000000000000000000000000600052603260045260246000fd5b60200260200101819052508061191890614f38565b9050611831565b5080915050919050565b6119316125ac565b73ffffffffffffffffffffffffffffffffffffffff1661194f6115c6565b73ffffffffffffffffffffffffffffffffffffffff16146119a5576040517f08c379a000000000000000000000000000000000000000000000000000000000815260040161199c90614a86565b60405180910390fd5b82600460006101000a81548173ffffffffffffffffffffffffffffffffffffffff021916908373ffffffffffffffffffffffffffffffffffffffff16021790555081600460146101000a81548160ff02191690831515021790555080600760006101000a81548160ff021916908315150217905550505050565b6000600460149054906101000a900460ff1615611b25576000600460009054906101000a900473ffffffffffffffffffffffffffffffffffffffff1690508273ffffffffffffffffffffffffffffffffffffffff168173ffffffffffffffffffffffffffffffffffffffff1663c4552791866040518263ffffffff1660e01b8152600401611aad9190614711565b60206040518083038186803b158015611ac557600080fd5b505afa158015611ad9573d6000803e3d6000fd5b505050506040513d601f19601f82011682018060405250810190611afd9190613b7f565b73ffffffffffffffffffffffffffffffffffffffff161415611b23576001915050611b32565b505b611b2f8383612d0d565b90505b92915050565b600073ffffffffffffffffffffffffffffffffffffffff168473ffffffffffffffffffffffffffffffffffffffff161415611ba8576040517f08c379a0000000000000000000000000000000000000000000000000000000008152600401611b9f906149a6565b60405180910390fd5b611bb06125ac565b73ffffffffffffffffffffffffffffffffffffffff168573ffffffffffffffffffffffffffffffffffffffff161480611bf65750611bf585611bf06125ac565b611a1f565b5b611c35576040517f08c379a0000000000000000000000000000000000000000000000000000000008152600401611c2c90614986565b60405180910390fd5b6000611c3f6125ac565b9050611c5f818787611c5088612da1565b611c5988612da1565b8761281f565b60006001600086815260200190815260200160002060008873ffffffffffffffffffffffffffffffffffffffff1673ffffffffffffffffffffffffffffffffffffffff16815260200190815260200160002054905083811015611cf7576040517f08c379a0000000000000000000000000000000000000000000000000000000008152600401611cee90614a46565b60405180910390fd5b8381611d039190614df8565b6001600087815260200190815260200160002060008973ffffffffffffffffffffffffffffffffffffffff1673ffffffffffffffffffffffffffffffffffffffff16815260200190815260200160002081905550836001600087815260200190815260200160002060008873ffffffffffffffffffffffffffffffffffffffff1673ffffffffffffffffffffffffffffffffffffffff1681526020019081526020016000206000828254611db79190614d48565b925050819055508573ffffffffffffffffffffffffffffffffffffffff168773ffffffffffffffffffffffffffffffffffffffff168373ffffffffffffffffffffffffffffffffffffffff167fc3d58168c5ae7397731d063d5bbf3d657854427343f4c083240f7aacaa2d0f628888604051611e34929190614bbc565b60405180910390a4611e4a828888888888612e67565b50505050505050565b611e5b6125ac565b73ffffffffffffffffffffffffffffffffffffffff16611e796115c6565b73ffffffffffffffffffffffffffffffffffffffff1614611ecf576040517f08c379a0000000000000000000000000000000000000000000000000000000008152600401611ec690614a86565b60405180910390fd5b600073ffffffffffffffffffffffffffffffffffffffff168173ffffffffffffffffffffffffffffffffffffffff161415611f3f576040517f08c379a0000000000000000000000000000000000000000000000000000000008152600401611f3690614946565b60405180910390fd5b8073ffffffffffffffffffffffffffffffffffffffff1660008054906101000a900473ffffffffffffffffffffffffffffffffffffffff1673ffffffffffffffffffffffffffffffffffffffff167f8be0079c531659141344cd1fd0a4f28419497f9722a3daafe3b4186f6b6457e060405160405180910390a3806000806101000a81548173ffffffffffffffffffffffffffffffffffffffff021916908373ffffffffffffffffffffffffffffffffffffffff16021790555050565b6120046125ac565b73ffffffffffffffffffffffffffffffffffffffff168373ffffffffffffffffffffffffffffffffffffffff16148061204a5750612049836120446125ac565b611a1f565b5b612089576040517f08c379a000000000000000000000000000000000000000000000000000000000815260040161208090614986565b60405180910390fd5b612094838383613037565b505050565b6120a16125ac565b73ffffffffffffffffffffffffffffffffffffffff166120bf6115c6565b73ffffffffffffffffffffffffffffffffffffffff1614612115576040517f08c379a000000000000000000000000000000000000000000000000000000000815260040161210c90614a86565b60405180910390fd5b6040518060a0016040528082815260200185815260200186815260200184815260200183815250600660008881526020019081526020016000206000820151816000015560208201518160010155604082015181600201556060820151816003015560808201518160040155905050505050505050565b60007fd9b67a26000000000000000000000000000000000000000000000000000000007bffffffffffffffffffffffffffffffffffffffffffffffffffffffff1916827bffffffffffffffffffffffffffffffffffffffffffffffffffffffff1916148061225757507f0e89341c000000000000000000000000000000000000000000000000000000007bffffffffffffffffffffffffffffffffffffffffffffffffffffffff1916827bffffffffffffffffffffffffffffffffffffffffffffffffffffffff1916145b8061226757506122668261325f565b5b9050919050565b600073ffffffffffffffffffffffffffffffffffffffff168473ffffffffffffffffffffffffffffffffffffffff1614156122de576040517f08c379a00000000000000000000000000000000000000000000000000000000081526004016122d590614b66565b60405180910390fd5b60006122e86125ac565b9050612309816000876122fa88612da1565b61230388612da1565b8761281f565b826001600086815260200190815260200160002060008773ffffffffffffffffffffffffffffffffffffffff1673ffffffffffffffffffffffffffffffffffffffff16815260200190815260200160002060008282546123699190614d48565b925050819055508473ffffffffffffffffffffffffffffffffffffffff16600073ffffffffffffffffffffffffffffffffffffffff168273ffffffffffffffffffffffffffffffffffffffff167fc3d58168c5ae7397731d063d5bbf3d657854427343f4c083240f7aacaa2d0f6287876040516123e7929190614bbc565b60405180910390a46123fe81600087878787612e67565b5050505050565b6000600660008781526020019081526020016000206040518060a00160405290816000820154815260200160018201548152602001600282015481526020016003820154815260200160048201548152505090506000816020015111156124f9576040518060a001604052808260000151815260200186836020015161248b9190614d48565b8152602001826040015181526020018260600151815260200182608001518152506006600088815260200190815260200160002060008201518160000155602082015181600101556040820151816002015560608201518160030155608082015181600401559050506125a4565b6000600560008681526020019081526020016000206040518060400160405290816000820154815260200160018201548152505090506040518060a001604052808260000151815260200187815260200186815260200185815260200184815250600660008981526020019081526020016000206000820151816000015560208201518160010155604082015181600201556060820151816003015560808201518160040155905050505b505050505050565b600033905090565b600073ffffffffffffffffffffffffffffffffffffffff168473ffffffffffffffffffffffffffffffffffffffff161415612624576040517f08c379a000000000000000000000000000000000000000000000000000000000815260040161261b90614b66565b60405180910390fd5b8151835114612668576040517f08c379a000000000000000000000000000000000000000000000000000000000815260040161265f90614b46565b60405180910390fd5b60006126726125ac565b90506126838160008787878761281f565b60005b8451811015612789578381815181106126c8577f4e487b7100000000000000000000000000000000000000000000000000000000600052603260045260246000fd5b60200260200101516001600087848151811061270d577f4e487b7100000000000000000000000000000000000000000000000000000000600052603260045260246000fd5b6020026020010151815260200190815260200160002060008873ffffffffffffffffffffffffffffffffffffffff1673ffffffffffffffffffffffffffffffffffffffff168152602001908152602001600020600082825461276f9190614d48565b92505081905550808061278190614f38565b915050612686565b508473ffffffffffffffffffffffffffffffffffffffff16600073ffffffffffffffffffffffffffffffffffffffff168273ffffffffffffffffffffffffffffffffffffffff167f4a39dc06d4c0dbc64b70af90fd698a233a518aa5d07e595d983b8c0526c8f7fb8787604051612801929190614832565b60405180910390a461281881600087878787612835565b5050505050565b61282d8686868686866132c9565b505050505050565b6128548473ffffffffffffffffffffffffffffffffffffffff166132d1565b156129fd578373ffffffffffffffffffffffffffffffffffffffff1663bc197c8187878686866040518663ffffffff1660e01b815260040161289a95949392919061472c565b602060405180830381600087803b1580156128b457600080fd5b505af19250505080156128e557506040513d601f19601f820116820180604052508101906128e29190613b56565b60015b612974576128f161502c565b806128fc5750612939565b806040517f08c379a00000000000000000000000000000000000000000000000000000000081526004016129309190614884565b60405180910390fd5b6040517f08c379a000000000000000000000000000000000000000000000000000000000815260040161296b906148a6565b60405180910390fd5b63bc197c8160e01b7bffffffffffffffffffffffffffffffffffffffffffffffffffffffff1916817bffffffffffffffffffffffffffffffffffffffffffffffffffffffff1916146129fb576040517f08c379a00000000000000000000000000000000000000000000000000000000081526004016129f2906148c6565b60405180910390fd5b505b505050505050565b600073ffffffffffffffffffffffffffffffffffffffff168373ffffffffffffffffffffffffffffffffffffffff161415612a75576040517f08c379a0000000000000000000000000000000000000000000000000000000008152600401612a6c90614a26565b60405180910390fd5b8051825114612ab9576040517f08c379a0000000000000000000000000000000000000000000000000000000008152600401612ab090614b46565b60405180910390fd5b6000612ac36125ac565b9050612ae38185600086866040518060200160405280600081525061281f565b60005b8351811015612c87576000848281518110612b2a577f4e487b7100000000000000000000000000000000000000000000000000000000600052603260045260246000fd5b602002602001015190506000848381518110612b6f577f4e487b7100000000000000000000000000000000000000000000000000000000600052603260045260246000fd5b6020026020010151905060006001600084815260200190815260200160002060008973ffffffffffffffffffffffffffffffffffffffff1673ffffffffffffffffffffffffffffffffffffffff16815260200190815260200160002054905081811015612c11576040517f08c379a0000000000000000000000000000000000000000000000000000000008152600401612c0890614966565b60405180910390fd5b8181612c1d9190614df8565b6001600085815260200190815260200160002060008a73ffffffffffffffffffffffffffffffffffffffff1673ffffffffffffffffffffffffffffffffffffffff168152602001908152602001600020819055505050508080612c7f90614f38565b915050612ae6565b50600073ffffffffffffffffffffffffffffffffffffffff168473ffffffffffffffffffffffffffffffffffffffff168273ffffffffffffffffffffffffffffffffffffffff167f4a39dc06d4c0dbc64b70af90fd698a233a518aa5d07e595d983b8c0526c8f7fb8686604051612cff929190614832565b60405180910390a450505050565b6000600260008473ffffffffffffffffffffffffffffffffffffffff1673ffffffffffffffffffffffffffffffffffffffff16815260200190815260200160002060008373ffffffffffffffffffffffffffffffffffffffff1673ffffffffffffffffffffffffffffffffffffffff16815260200190815260200160002060009054906101000a900460ff16905092915050565b60606000600167ffffffffffffffff811115612de6577f4e487b7100000000000000000000000000000000000000000000000000000000600052604160045260246000fd5b604051908082528060200260200182016040528015612e145781602001602082028036833780820191505090505b5090508281600081518110612e52577f4e487b7100000000000000000000000000000000000000000000000000000000600052603260045260246000fd5b60200260200101818152505080915050919050565b612e868473ffffffffffffffffffffffffffffffffffffffff166132d1565b1561302f578373ffffffffffffffffffffffffffffffffffffffff1663f23a6e6187878686866040518663ffffffff1660e01b8152600401612ecc959493929190614794565b602060405180830381600087803b158015612ee657600080fd5b505af1925050508015612f1757506040513d601f19601f82011682018060405250810190612f149190613b56565b60015b612fa657612f2361502c565b80612f2e5750612f6b565b806040517f08c379a0000000000000000000000000000000000000000000000000000000008152600401612f629190614884565b60405180910390fd5b6040517f08c379a0000000000000000000000000000000000000000000000000000000008152600401612f9d906148a6565b60405180910390fd5b63f23a6e6160e01b7bffffffffffffffffffffffffffffffffffffffffffffffffffffffff1916817bffffffffffffffffffffffffffffffffffffffffffffffffffffffff19161461302d576040517f08c379a0000000000000000000000000000000000000000000000000000000008152600401613024906148c6565b60405180910390fd5b505b505050505050565b600073ffffffffffffffffffffffffffffffffffffffff168373ffffffffffffffffffffffffffffffffffffffff1614156130a7576040517f08c379a000000000000000000000000000000000000000000000000000000000815260040161309e90614a26565b60405180910390fd5b60006130b16125ac565b90506130e1818560006130c387612da1565b6130cc87612da1565b6040518060200160405280600081525061281f565b60006001600085815260200190815260200160002060008673ffffffffffffffffffffffffffffffffffffffff1673ffffffffffffffffffffffffffffffffffffffff16815260200190815260200160002054905082811015613179576040517f08c379a000000000000000000000000000000000000000000000000000000000815260040161317090614966565b60405180910390fd5b82816131859190614df8565b6001600086815260200190815260200160002060008773ffffffffffffffffffffffffffffffffffffffff1673ffffffffffffffffffffffffffffffffffffffff16815260200190815260200160002081905550600073ffffffffffffffffffffffffffffffffffffffff168573ffffffffffffffffffffffffffffffffffffffff168373ffffffffffffffffffffffffffffffffffffffff167fc3d58168c5ae7397731d063d5bbf3d657854427343f4c083240f7aacaa2d0f628787604051613250929190614bbc565b60405180910390a45050505050565b60007f01ffc9a7000000000000000000000000000000000000000000000000000000007bffffffffffffffffffffffffffffffffffffffffffffffffffffffff1916827bffffffffffffffffffffffffffffffffffffffffffffffffffffffff1916149050919050565b505050505050565b600080823b905060008111915050919050565b604051806040016040528060008152602001600081525090565b6040518060a0016040528060008152602001600081526020016000815260200160008152602001600081525090565b600061334061333b84614c16565b614be5565b9050808382526020820190508285602086028201111561335f57600080fd5b60005b8581101561338f57816133758882613443565b845260208401935060208301925050600181019050613362565b5050509392505050565b60006133ac6133a784614c42565b614be5565b905080838252602082019050828560208602820111156133cb57600080fd5b60005b858110156133fb57816133e1888261353f565b8452602084019350602083019250506001810190506133ce565b5050509392505050565b600061341861341384614c6e565b614be5565b90508281526020810184848401111561343057600080fd5b61343b848285614ec4565b509392505050565b600081359050613452816150e2565b92915050565b600081359050613467816150f9565b92915050565b600082601f83011261347e57600080fd5b813561348e84826020860161332d565b91505092915050565b600082601f8301126134a857600080fd5b81356134b8848260208601613399565b91505092915050565b6000813590506134d081615110565b92915050565b6000813590506134e581615127565b92915050565b6000815190506134fa81615127565b92915050565b600082601f83011261351157600080fd5b8135613521848260208601613405565b91505092915050565b6000815190506135398161513e565b92915050565b60008135905061354e81615155565b92915050565b60006020828403121561356657600080fd5b600061357484828501613443565b91505092915050565b6000806040838503121561359057600080fd5b600061359e85828601613443565b92505060206135af85828601613443565b9150509250929050565b600080600080600060a086880312156135d157600080fd5b60006135df88828901613443565b95505060206135f088828901613443565b945050604086013567ffffffffffffffff81111561360d57600080fd5b61361988828901613497565b935050606086013567ffffffffffffffff81111561363657600080fd5b61364288828901613497565b925050608086013567ffffffffffffffff81111561365f57600080fd5b61366b88828901613500565b9150509295509295909350565b600080600080600060a0868803121561369057600080fd5b600061369e88828901613443565b95505060206136af88828901613443565b94505060406136c08882890161353f565b93505060606136d18882890161353f565b925050608086013567ffffffffffffffff8111156136ee57600080fd5b6136fa88828901613500565b9150509295509295909350565b60008060006060848603121561371c57600080fd5b600061372a86828701613443565b935050602084013567ffffffffffffffff81111561374757600080fd5b61375386828701613497565b925050604084013567ffffffffffffffff81111561377057600080fd5b61377c86828701613497565b9150509250925092565b600080600080600080600060e0888a0312156137a157600080fd5b60006137af8a828b01613443565b975050602088013567ffffffffffffffff8111156137cc57600080fd5b6137d88a828b01613497565b965050604088013567ffffffffffffffff8111156137f557600080fd5b6138018a828b01613497565b955050606088013567ffffffffffffffff81111561381e57600080fd5b61382a8a828b01613497565b945050608088013567ffffffffffffffff81111561384757600080fd5b6138538a828b01613497565b93505060a088013567ffffffffffffffff81111561387057600080fd5b61387c8a828b01613497565b92505060c088013567ffffffffffffffff81111561389957600080fd5b6138a58a828b01613500565b91505092959891949750929550565b600080604083850312156138c757600080fd5b60006138d585828601613443565b92505060206138e6858286016134c1565b9150509250929050565b60008060006060848603121561390557600080fd5b600061391386828701613443565b9350506020613924868287016134c1565b9250506040613935868287016134c1565b9150509250925092565b6000806040838503121561395257600080fd5b600061396085828601613443565b92505060206139718582860161353f565b9150509250929050565b60008060006060848603121561399057600080fd5b600061399e86828701613443565b93505060206139af8682870161353f565b92505060406139c08682870161353f565b9150509250925092565b600080600080600080600060e0888a0312156139e557600080fd5b60006139f38a828b01613443565b9750506020613a048a828b0161353f565b9650506040613a158a828b0161353f565b9550506060613a268a828b0161353f565b9450506080613a378a828b0161353f565b93505060a0613a488a828b0161353f565b92505060c088013567ffffffffffffffff811115613a6557600080fd5b613a718a828b01613500565b91505092959891949750929550565b60008060408385031215613a9357600080fd5b600083013567ffffffffffffffff811115613aad57600080fd5b613ab98582860161346d565b925050602083013567ffffffffffffffff811115613ad657600080fd5b613ae285828601613497565b9150509250929050565b600060208284031215613afe57600080fd5b600082013567ffffffffffffffff811115613b1857600080fd5b613b2484828501613497565b91505092915050565b600060208284031215613b3f57600080fd5b6000613b4d848285016134d6565b91505092915050565b600060208284031215613b6857600080fd5b6000613b76848285016134eb565b91505092915050565b600060208284031215613b9157600080fd5b6000613b9f8482850161352a565b91505092915050565b600060208284031215613bba57600080fd5b6000613bc88482850161353f565b91505092915050565b60008060008060808587031215613be757600080fd5b6000613bf58782880161353f565b9450506020613c068782880161353f565b9350506040613c1787828801613443565b9250506060613c2887828801613458565b91505092959194509250565b600080600060608486031215613c4957600080fd5b6000613c578682870161353f565b9350506020613c688682870161353f565b9250506040613c798682870161353f565b9150509250925092565b60008060008060008060c08789031215613c9c57600080fd5b6000613caa89828a0161353f565b9650506020613cbb89828a0161353f565b9550506040613ccc89828a0161353f565b9450506060613cdd89828a0161353f565b9350506080613cee89828a0161353f565b92505060a0613cff89828a0161353f565b9150509295509295509295565b6000613d18838361465c565b60a08301905092915050565b6000613d3083836146f3565b60208301905092915050565b613d4581614e2c565b82525050565b6000613d5682614cbe565b613d608185614d04565b9350613d6b83614c9e565b8060005b83811015613d9c578151613d838882613d0c565b9750613d8e83614cea565b925050600181019050613d6f565b5085935050505092915050565b6000613db482614cc9565b613dbe8185614d15565b9350613dc983614cae565b8060005b83811015613dfa578151613de18882613d24565b9750613dec83614cf7565b925050600181019050613dcd565b5085935050505092915050565b613e1081614e50565b82525050565b6000613e2182614cd4565b613e2b8185614d26565b9350613e3b818560208601614ed3565b613e448161500e565b840191505092915050565b6000613e5a82614cdf565b613e648185614d37565b9350613e74818560208601614ed3565b613e7d8161500e565b840191505092915050565b6000613e95603483614d37565b91507f455243313135353a207472616e7366657220746f206e6f6e204552433131353560008301527f526563656976657220696d706c656d656e7465720000000000000000000000006020830152604082019050919050565b6000613efb602883614d37565b91507f455243313135353a204552433131353552656365697665722072656a6563746560008301527f6420746f6b656e730000000000000000000000000000000000000000000000006020830152604082019050919050565b6000613f61601383614d37565b91507f70726573616c652069732064697361626c6564000000000000000000000000006000830152602082019050919050565b6000613fa1602b83614d37565b91507f455243313135353a2062616c616e636520717565727920666f7220746865207a60008301527f65726f20616464726573730000000000000000000000000000000000000000006020830152604082019050919050565b6000614007601283614d37565b91507f616d6f756e74206d757374206265203e203000000000000000000000000000006000830152602082019050919050565b6000614047602683614d37565b91507f4f776e61626c653a206e6577206f776e657220697320746865207a65726f206160008301527f64647265737300000000000000000000000000000000000000000000000000006020830152604082019050919050565b60006140ad602483614d37565b91507f455243313135353a206275726e20616d6f756e7420657863656564732062616c60008301527f616e6365000000000000000000000000000000000000000000000000000000006020830152604082019050919050565b6000614113602983614d37565b91507f455243313135353a2063616c6c6572206973206e6f74206f776e6572206e6f7260008301527f20617070726f76656400000000000000000000000000000000000000000000006020830152604082019050919050565b6000614179602583614d37565b91507f455243313135353a207472616e7366657220746f20746865207a65726f20616460008301527f64726573730000000000000000000000000000000000000000000000000000006020830152604082019050919050565b60006141df603283614d37565b91507f455243313135353a207472616e736665722063616c6c6572206973206e6f742060008301527f6f776e6572206e6f7220617070726f76656400000000000000000000000000006020830152604082019050919050565b6000614245602083614d37565b91507f6974656d636f756e74206578636565647320616c6c6f77656420616d6f756e746000830152602082019050919050565b6000614285601183614d37565b91507f76616c7565206d757374206265203e20300000000000000000000000000000006000830152602082019050919050565b60006142c5602383614d37565b91507f455243313135353a206275726e2066726f6d20746865207a65726f206164647260008301527f65737300000000000000000000000000000000000000000000000000000000006020830152604082019050919050565b600061432b602a83614d37565b91507f455243313135353a20696e73756666696369656e742062616c616e636520666f60008301527f72207472616e73666572000000000000000000000000000000000000000000006020830152604082019050919050565b6000614391601483614d37565b91507f7072696365206973206e6f7420636f72726563740000000000000000000000006000830152602082019050919050565b60006143d1602083614d37565b91507f4f776e61626c653a2063616c6c6572206973206e6f7420746865206f776e65726000830152602082019050919050565b6000614411601283614d37565b91507f66726f6d206d757374206265206f776e657200000000000000000000000000006000830152602082019050919050565b6000614451601583614d37565b91507f6974656d636f756e74206d757374206265203e203000000000000000000000006000830152602082019050919050565b6000614491601183614d37565b91507f7072696365206d757374206265203e20300000000000000000000000000000006000830152602082019050919050565b60006144d1602983614d37565b91507f455243313135353a2073657474696e6720617070726f76616c2073746174757360008301527f20666f722073656c6600000000000000000000000000000000000000000000006020830152604082019050919050565b6000614537602983614d37565b91507f455243313135353a206163636f756e747320616e6420696473206c656e67746860008301527f206d69736d6174636800000000000000000000000000000000000000000000006020830152604082019050919050565b600061459d602883614d37565b91507f455243313135353a2069647320616e6420616d6f756e7473206c656e6774682060008301527f6d69736d617463680000000000000000000000000000000000000000000000006020830152604082019050919050565b6000614603602183614d37565b91507f455243313135353a206d696e7420746f20746865207a65726f2061646472657360008301527f73000000000000000000000000000000000000000000000000000000000000006020830152604082019050919050565b60a08201600082015161467260008501826146f3565b50602082015161468560208501826146f3565b50604082015161469860408501826146f3565b5060608201516146ab60608501826146f3565b5060808201516146be60808501826146f3565b50505050565b6040820160008201516146da60008501826146f3565b5060208201516146ed60208501826146f3565b50505050565b6146fc81614eba565b82525050565b61470b81614eba565b82525050565b60006020820190506147266000830184613d3c565b92915050565b600060a0820190506147416000830188613d3c565b61474e6020830187613d3c565b81810360408301526147608186613da9565b905081810360608301526147748185613da9565b905081810360808301526147888184613e16565b90509695505050505050565b600060a0820190506147a96000830188613d3c565b6147b66020830187613d3c565b6147c36040830186614702565b6147d06060830185614702565b81810360808301526147e28184613e16565b90509695505050505050565b600060208201905081810360008301526148088184613d4b565b905092915050565b6000602082019050818103600083015261482a8184613da9565b905092915050565b6000604082019050818103600083015261484c8185613da9565b905081810360208301526148608184613da9565b90509392505050565b600060208201905061487e6000830184613e07565b92915050565b6000602082019050818103600083015261489e8184613e4f565b905092915050565b600060208201905081810360008301526148bf81613e88565b9050919050565b600060208201905081810360008301526148df81613eee565b9050919050565b600060208201905081810360008301526148ff81613f54565b9050919050565b6000602082019050818103600083015261491f81613f94565b9050919050565b6000602082019050818103600083015261493f81613ffa565b9050919050565b6000602082019050818103600083015261495f8161403a565b9050919050565b6000602082019050818103600083015261497f816140a0565b9050919050565b6000602082019050818103600083015261499f81614106565b9050919050565b600060208201905081810360008301526149bf8161416c565b9050919050565b600060208201905081810360008301526149df816141d2565b9050919050565b600060208201905081810360008301526149ff81614238565b9050919050565b60006020820190508181036000830152614a1f81614278565b9050919050565b60006020820190508181036000830152614a3f816142b8565b9050919050565b60006020820190508181036000830152614a5f8161431e565b9050919050565b60006020820190508181036000830152614a7f81614384565b9050919050565b60006020820190508181036000830152614a9f816143c4565b9050919050565b60006020820190508181036000830152614abf81614404565b9050919050565b60006020820190508181036000830152614adf81614444565b9050919050565b60006020820190508181036000830152614aff81614484565b9050919050565b60006020820190508181036000830152614b1f816144c4565b9050919050565b60006020820190508181036000830152614b3f8161452a565b9050919050565b60006020820190508181036000830152614b5f81614590565b9050919050565b60006020820190508181036000830152614b7f816145f6565b9050919050565b6000604082019050614b9b60008301846146c4565b92915050565b6000602082019050614bb66000830184614702565b92915050565b6000604082019050614bd16000830185614702565b614bde6020830184614702565b9392505050565b6000604051905081810181811067ffffffffffffffff82111715614c0c57614c0b614fdf565b5b8060405250919050565b600067ffffffffffffffff821115614c3157614c30614fdf565b5b602082029050602081019050919050565b600067ffffffffffffffff821115614c5d57614c5c614fdf565b5b602082029050602081019050919050565b600067ffffffffffffffff821115614c8957614c88614fdf565b5b601f19601f8301169050602081019050919050565b6000819050602082019050919050565b6000819050602082019050919050565b600081519050919050565b600081519050919050565b600081519050919050565b600081519050919050565b6000602082019050919050565b6000602082019050919050565b600082825260208201905092915050565b600082825260208201905092915050565b600082825260208201905092915050565b600082825260208201905092915050565b6000614d5382614eba565b9150614d5e83614eba565b9250827fffffffffffffffffffffffffffffffffffffffffffffffffffffffffffffffff03821115614d9357614d92614f81565b5b828201905092915050565b6000614da982614eba565b9150614db483614eba565b9250817fffffffffffffffffffffffffffffffffffffffffffffffffffffffffffffffff0483118215151615614ded57614dec614f81565b5b828202905092915050565b6000614e0382614eba565b9150614e0e83614eba565b925082821015614e2157614e20614f81565b5b828203905092915050565b6000614e3782614e9a565b9050919050565b6000614e4982614e9a565b9050919050565b60008115159050919050565b60007fffffffff0000000000000000000000000000000000000000000000000000000082169050919050565b6000614e9382614e2c565b9050919050565b600073ffffffffffffffffffffffffffffffffffffffff82169050919050565b6000819050919050565b82818337600083830152505050565b60005b83811015614ef1578082015181840152602081019050614ed6565b83811115614f00576000848401525b50505050565b60006002820490506001821680614f1e57607f821691505b60208210811415614f3257614f31614fb0565b5b50919050565b6000614f4382614eba565b91507fffffffffffffffffffffffffffffffffffffffffffffffffffffffffffffffff821415614f7657614f75614f81565b5b600182019050919050565b7f4e487b7100000000000000000000000000000000000000000000000000000000600052601160045260246000fd5b7f4e487b7100000000000000000000000000000000000000000000000000000000600052602260045260246000fd5b7f4e487b7100000000000000000000000000000000000000000000000000000000600052604160045260246000fd5b6000601f19601f8301169050919050565b60008160e01c9050919050565b600060443d101561503c576150df565b60046000803e61504d60005161501f565b6308c379a0811461505e57506150df565b60405160043d036004823e80513d602482011167ffffffffffffffff8211171561508a575050506150df565b808201805167ffffffffffffffff8111156150a95750505050506150df565b8060208301013d85018111156150c4575050505050506150df565b6150cd8261500e565b60208401016040528296505050505050505b90565b6150eb81614e2c565b81146150f657600080fd5b50565b61510281614e3e565b811461510d57600080fd5b50565b61511981614e50565b811461512457600080fd5b50565b61513081614e5c565b811461513b57600080fd5b50565b61514781614e88565b811461515257600080fd5b50565b61515e81614eba565b811461516957600080fd5b5056fea26469706673582212206193cce9e42f828e64d897e511f5aecdd3c9c3f30f1e82a717c5ccf72678330e64736f6c63430008000033",
  "immutableReferences": {},
  "source": "// SPDX-License-Identifier: MIT\r\n\r\npragma solidity ^0.8.0;\r\n\r\nimport \"@openzeppelin/contracts/token/ERC1155/ERC1155.sol\";\r\nimport \"@openzeppelin/contracts/token/ERC1155/extensions/ERC1155Burnable.sol\";\r\nimport \"@openzeppelin/contracts/utils/Context.sol\";\r\nimport \"@openzeppelin/contracts/access/Ownable.sol\";\r\n\r\ncontract OwnableDelegateProxy {}\r\n\r\ncontract ProxyRegistry {\r\n    mapping(address => OwnableDelegateProxy) public proxies;\r\n}\r\n\r\n/**\r\n * @dev {ERC1155} token, including:\r\n *\r\n *  - ability for holders to burn (destroy) their tokens\r\n *\r\n * This contract uses {Ownable}\r\n */\r\ncontract Voido is Context, Ownable, ERC1155Burnable {\r\n    address proxyRegistryAddress;\r\n    bool isProxyEnabled = false;\r\n\r\n    struct RankProperty {\r\n        uint256 price;\r\n        uint256 maxAmount;\r\n    }\r\n    struct ItemProperty {\r\n        uint256 price;\r\n        uint256 count;\r\n        uint256 rank;\r\n        uint256 atk;\r\n        uint256 def;\r\n    }\r\n\r\n    event LogDeposit(address sender, uint256 amount);\r\n    event LogTransfer(address sender, address to, uint256 amount);\r\n\r\n    mapping(uint256 => RankProperty) private RankProperties;\r\n    mapping(uint256 => ItemProperty) private ItemProperties;\r\n    struct Order {\r\n        uint256 price;\r\n        uint256 amount;\r\n    }\r\n\r\n    // From ERC721 registry assetId to Order (to avoid asset collision)\r\n    // mapping(address => mapping(uint256 => Order)) public userOrders;\r\n\r\n    bool private presale = true;\r\n\r\n    mapping(address => uint256) etherBalances;\r\n\r\n    function setConfig(\r\n        address _proxyRegistryAddress,\r\n        bool _isProxyEnabled,\r\n        bool _presale\r\n    ) public virtual onlyOwner {\r\n        proxyRegistryAddress = _proxyRegistryAddress;\r\n        isProxyEnabled = _isProxyEnabled;\r\n        presale = _presale;\r\n    }\r\n\r\n    /**\r\n     * @dev Grants `DEFAULT_ADMIN_ROLE`, `MINTER_ROLE`, and `PAUSER_ROLE` to the account that\r\n     * deploys the contract.\r\n     *\r\n     * Ranks\r\n     *   1-> Common\r\n     *   2-> Rare\r\n     *   3-> Epic? Legendary\r\n     *   4-> Divine\r\n     *\r\n     */\r\n\r\n    constructor(string memory uri) ERC1155(uri) {\r\n        RankProperties[1] = RankProperty(1 * 10**17, 20);\r\n        RankProperties[2] = RankProperty(3 * 10**17, 10);\r\n        RankProperties[3] = RankProperty(1 * 10**18, 5);\r\n        RankProperties[4] = RankProperty(100 * 10**18, 1);\r\n    }\r\n\r\n    function name() external pure returns (string memory) {\r\n        return \"Boido Store\";\r\n    }\r\n\r\n    function symbol() external pure returns (string memory) {\r\n        return \"Void\";\r\n    }\r\n\r\n    function isApprovedForAll(address _owner, address _operator)\r\n        public\r\n        view\r\n        override(ERC1155)\r\n        returns (bool isOperator)\r\n    {\r\n        // Whitelist OpenSea proxy contract for easy trading.\r\n\r\n        if (isProxyEnabled) {\r\n            ProxyRegistry proxyRegistry = ProxyRegistry(proxyRegistryAddress);\r\n            if (address(proxyRegistry.proxies(_owner)) == _operator) {\r\n                return true;\r\n            }\r\n        }\r\n\r\n        return ERC1155.isApprovedForAll(_owner, _operator);\r\n    }\r\n\r\n    /**\r\n     * @dev Creates `amount` new tokens for `to`, of token type `id`.\r\n     *\r\n     * See {ERC1155-_mint}.\r\n     *\r\n     * Requirements:\r\n     *\r\n     * - the caller must have the `MINTER_ROLE`.\r\n     */\r\n\r\n    function mint(\r\n        address to,\r\n        uint256 id,\r\n        uint256 amount,\r\n        uint256 rank,\r\n        uint256 atk,\r\n        uint256 def,\r\n        bytes memory data\r\n    ) public virtual onlyOwner {\r\n        _mint(to, id, amount, data);\r\n        changeIdData(id, amount, rank, atk, def);\r\n    }\r\n\r\n    function changeIdData(\r\n        uint256 id,\r\n        uint256 amount,\r\n        uint256 rank,\r\n        uint256 atk,\r\n        uint256 def\r\n    ) internal {\r\n        ItemProperty memory itemProperty = ItemProperties[id];\r\n\r\n        if (itemProperty.count > 0) {\r\n            ItemProperties[id] = ItemProperty(\r\n                itemProperty.price,\r\n                itemProperty.count + amount,\r\n                itemProperty.rank,\r\n                itemProperty.atk,\r\n                itemProperty.def\r\n            );\r\n        } else {\r\n            RankProperty memory rankProperty = RankProperties[rank];\r\n\r\n            ItemProperties[id] = ItemProperty(\r\n                rankProperty.price,\r\n                amount,\r\n                rank,\r\n                atk,\r\n                def\r\n            );\r\n        }\r\n    }\r\n\r\n    /**\r\n     * @dev xref:ROOT:erc1155.adoc#batch-operations[Batched] variant of {mint}.\r\n     */\r\n    function mintBatch(\r\n        address to,\r\n        uint256[] memory ids,\r\n        uint256[] memory amounts,\r\n        uint256[] memory ranks,\r\n        uint256[] memory atk,\r\n        uint256[] memory def,\r\n        bytes memory data\r\n    ) public virtual onlyOwner {\r\n        _mintBatch(to, ids, amounts, data);\r\n        for (uint256 i = 0; i < ids.length; ++i) {\r\n            changeIdData(ids[i], amounts[i], ranks[i], atk[i], def[i]);\r\n        }\r\n    }\r\n\r\n    /**\r\n     * @dev See {IERC165-supportsInterface}.\r\n     */\r\n    function supportsInterface(bytes4 interfaceId)\r\n        public\r\n        view\r\n        virtual\r\n        override(ERC1155)\r\n        returns (bool)\r\n    {\r\n        return super.supportsInterface(interfaceId);\r\n    }\r\n\r\n    function _beforeTokenTransfer(\r\n        address operator,\r\n        address from,\r\n        address to,\r\n        uint256[] memory ids,\r\n        uint256[] memory amounts,\r\n        bytes memory data\r\n    ) internal virtual override(ERC1155) {\r\n        super._beforeTokenTransfer(operator, from, to, ids, amounts, data);\r\n    }\r\n\r\n    function buyItemFromPreSale(\r\n        uint256 id,\r\n        uint256 amount,\r\n        address to,\r\n        address payable from\r\n    ) public payable {\r\n        ItemProperty memory itemProperty = ItemProperties[id];\r\n        RankProperty memory rankProperty = RankProperties[itemProperty.rank];\r\n        require(from == owner(), \"from must be owner\");\r\n        require(presale == true, \"presale is disabled\");\r\n        require(amount > 0, \"amount must be > 0\");\r\n        require(msg.value > 0, \"value must be > 0\");\r\n        require(itemProperty.price > 0, \"price must be > 0\");\r\n        require(itemProperty.count > 0, \"itemcount must be > 0\");\r\n        require(\r\n            itemProperty.count + amount <= rankProperty.maxAmount,\r\n            \"itemcount exceeds allowed amount\"\r\n        );\r\n        require(\r\n            msg.value == itemProperty.price * amount,\r\n            \"price is not correct\"\r\n        );\r\n        _mint(to, id, amount, \"\");\r\n        from.transfer(msg.value);\r\n\r\n        changeIdData(\r\n            id,\r\n            amount,\r\n            itemProperty.rank,\r\n            itemProperty.atk,\r\n            itemProperty.def\r\n        );\r\n    }\r\n\r\n    function setRankData(\r\n        uint256 rank,\r\n        uint256 price,\r\n        uint256 maxAmount\r\n    ) public onlyOwner {\r\n        RankProperties[rank] = RankProperty(price, maxAmount);\r\n    }\r\n\r\n    function setItemData(\r\n        uint256 id,\r\n        uint256 rank,\r\n        uint256 count,\r\n        uint256 atk,\r\n        uint256 def,\r\n        uint256 price\r\n    ) public onlyOwner {\r\n        ItemProperties[id] = ItemProperty(price, count, rank, atk, def);\r\n    }\r\n\r\n    function getRankData(uint256 rank)\r\n        public\r\n        view\r\n        returns (RankProperty memory)\r\n    {\r\n        return RankProperties[rank];\r\n    }\r\n\r\n    function getItemDatas(uint256[] memory ids)\r\n        public\r\n        view\r\n        returns (ItemProperty[] memory)\r\n    {\r\n        ItemProperty[] memory batchBalances = new ItemProperty[](ids.length);\r\n\r\n        for (uint256 i = 0; i < ids.length; ++i) {\r\n            batchBalances[i] = ItemProperties[ids[i]];\r\n        }\r\n\r\n        return batchBalances;\r\n    }\r\n}\r\n",
  "sourcePath": "D:/Development/boido_nft/contracts/Voido1155.sol",
  "compiler": {
    "name": "solc",
    "version": "0.8.0+commit.c7dfd78e.Emscripten.clang"
  },
  "schemaVersion": "3.3.4",
  "updatedAt": "2021-05-09T16:28:53.576Z",
  "networkType": "ethereum",
  "devdoc": {
    "details": "{ERC1155} token, including:  - ability for holders to burn (destroy) their tokens This contract uses {Ownable}",
    "kind": "dev",
    "methods": {
      "balanceOf(address,uint256)": {
        "details": "See {IERC1155-balanceOf}. Requirements: - `account` cannot be the zero address."
      },
      "balanceOfBatch(address[],uint256[])": {
        "details": "See {IERC1155-balanceOfBatch}. Requirements: - `accounts` and `ids` must have the same length."
      },
      "constructor": {
        "details": "Grants `DEFAULT_ADMIN_ROLE`, `MINTER_ROLE`, and `PAUSER_ROLE` to the account that deploys the contract. Ranks   1-> Common   2-> Rare   3-> Epic? Legendary   4-> Divine"
      },
      "mint(address,uint256,uint256,uint256,uint256,uint256,bytes)": {
        "details": "Creates `amount` new tokens for `to`, of token type `id`. See {ERC1155-_mint}. Requirements: - the caller must have the `MINTER_ROLE`."
      },
      "mintBatch(address,uint256[],uint256[],uint256[],uint256[],uint256[],bytes)": {
        "details": "xref:ROOT:erc1155.adoc#batch-operations[Batched] variant of {mint}."
      },
      "owner()": {
        "details": "Returns the address of the current owner."
      },
      "renounceOwnership()": {
        "details": "Leaves the contract without owner. It will not be possible to call `onlyOwner` functions anymore. Can only be called by the current owner. NOTE: Renouncing ownership will leave the contract without an owner, thereby removing any functionality that is only available to the owner."
      },
      "safeBatchTransferFrom(address,address,uint256[],uint256[],bytes)": {
        "details": "See {IERC1155-safeBatchTransferFrom}."
      },
      "safeTransferFrom(address,address,uint256,uint256,bytes)": {
        "details": "See {IERC1155-safeTransferFrom}."
      },
      "setApprovalForAll(address,bool)": {
        "details": "See {IERC1155-setApprovalForAll}."
      },
      "supportsInterface(bytes4)": {
        "details": "See {IERC165-supportsInterface}."
      },
      "transferOwnership(address)": {
        "details": "Transfers ownership of the contract to a new account (`newOwner`). Can only be called by the current owner."
      },
      "uri(uint256)": {
        "details": "See {IERC1155MetadataURI-uri}. This implementation returns the same URI for *all* token types. It relies on the token type ID substitution mechanism https://eips.ethereum.org/EIPS/eip-1155#metadata[defined in the EIP]. Clients calling this function must replace the `\\{id\\}` substring with the actual token type ID."
      }
    },
    "version": 1
  },
  "userdoc": {
    "kind": "user",
    "methods": {},
    "version": 1
  }
}